{
  "fileName": "CrossBoarderPayment.sol",
  "contractName": "CrossBoarderPayment",
  "source": "pragma solidity ^0.5.0;\n\nimport \"./eMoneyToken/EmoneyToken.sol\";\nimport \"./ICrossBoarderPayment.sol\";\nimport \"./libraries/StringUtil.sol\";\nimport \"@openzeppelin/contracts/math/SafeMath.sol\";\n\ncontract CrossBoarderPayment is ICrossBoarderPayment{\n    \n    using StringUtil for string;\n    using SafeMath for uint256;\n    \n    EmoneyToken internal eDollars;\n    EmoneyToken internal ePesos;\n\n    constructor(address _feeAgent, string memory name, string memory symbol) public {\n        eDollars = new EmoneyToken(name, symbol);\n        ePesos = new EmoneyToken(name, symbol);\n        eDollars.addMinter(msg.sender);\n        eDollars.addWhitelistAdmin(msg.sender);\n        ePesos.addMinter(msg.sender);\n        ePesos.addWhitelistAdmin(msg.sender);\n        \n        transferAgent = msg.sender;\n        feeAgent = _feeAgent;\n        emit CrossBorderCreated(address(eDollars),address(ePesos));\n    }\n\n    mapping(bytes32 => Transfer) private orderedTransfers;\n    address public transferAgent;\n    address public feeAgent;\n\n    function orderTransfer(string calldata operationId, address to, address operatorExchange, uint256 value, uint rate) external returns (bool) {\n        _checkTransfer(to);\n        \n        return _orderTransfer(\n            msg.sender,\n            operationId,\n            to,\n            operatorExchange,\n            value,\n            rate\n        );\n    }\n    \n    function setFeeRate(string calldata operationId, uint256 fee, uint256 rate) external returns (bool){\n        require(msg.sender == feeAgent, \"Set fee can only be executed by the fee agent\");\n        return _setFeeRate(operationId, fee, rate);\n    }\n\n    function cancelTransfer(string calldata operationId) external returns (bool) {\n        bytes32 operationIdHash = operationId.toHash();\n\n        Transfer storage cancelableTransfer = orderedTransfers[operationIdHash];\n\n        require(cancelableTransfer.status == TransferStatusCode.Ordered, \"A transfer can only be cancelled in status Ordered\");\n        require(\n            msg.sender == cancelableTransfer.issuer || msg.sender == cancelableTransfer.origin,\n            \"A transfer can only be cancelled by the orderer or the walletToBePaidOut\"\n        );\n\n        eDollars.releaseHold(operationId);\n\n        cancelableTransfer.status = TransferStatusCode.Cancelled;\n\n        emit TransferCancelled(\n            cancelableTransfer.issuer,\n            operationId\n        );\n\n        return true;\n    }\n\n    function approveTransfer(string calldata operationId) external returns (bool) {\n        require(msg.sender == transferAgent, \"A transfer can only be approved by the Citi's Agent\");\n        return _approveTransfer(operationId);\n    }\n    \n    function sendDollarsToExchange(string calldata operationId) external returns (bool){\n        require(msg.sender == transferAgent, \"A transfer can only be executed by the Citi's transferAgent\");\n        return _sendDollarsToExchange(operationId);\n    }\n    \n    function changeDollarsToPesos(string calldata operationId) external returns (bool){\n        require(msg.sender == transferAgent, \"A transfer can only be executed by the Citi's transferAgent\");\n        return _changeDollarsToPesos(operationId);\n    }\n    \n    function sendPesosToRecepient(string calldata operationId) external returns (bool){\n        require(msg.sender == transferAgent, \"A transfer can only be executed by the Citi's transferAgent\");\n        return _sendPesosToRecepient(operationId);\n    }\n\n    function retrieveTransferData(string calldata operationId) external view returns (\n        address origin,\n        address to,\n        address operatorExchange,\n        uint256 value,\n        uint256 fee,\n        uint256 rate,\n        uint256 estimatedRate,\n        uint256 valueExchanged,\n        TransferStatusCode status\n    )\n    {\n        bytes32 operationIdHash = operationId.toHash();\n\n        Transfer storage retrievedTransfer = orderedTransfers[operationIdHash];\n\n        return (\n            retrievedTransfer.origin,\n            retrievedTransfer.target,\n            retrievedTransfer.operatorExchange,\n            retrievedTransfer.value,\n            retrievedTransfer.fee,\n            retrievedTransfer.rate,\n            retrievedTransfer.estimatedRate,\n            retrievedTransfer.valueExchanged,\n            retrievedTransfer.status\n        );\n    }\n\n    function _orderTransfer(\n        address orderer,\n        string memory operationId,\n        address recipient,\n        address operatorExchange,\n        uint256 value,\n        uint256 rate\n    ) internal returns (bool)\n    {\n        Transfer storage newTransfer = orderedTransfers[operationId.toHash()];\n        require(newTransfer.value == 0, \"This operationId already exists\");\n        require(operatorExchange != address(0), \"Operator address must not be zero address\");\n        require(value > 0, \"Value must be greater than zero\");\n\n        require(eDollars.balanceOf(orderer)>value,\"Account doesn't have founds to transfer\");\n        require(ePesos.isWhitelisted(recipient), \"Destination Account isn't whitelisted\");\n        \n        newTransfer.issuer = msg.sender;\n        newTransfer.origin = orderer;\n        newTransfer.target = recipient;\n        newTransfer.operatorExchange = operatorExchange;\n        newTransfer.value = value;\n        newTransfer.estimatedRate = rate;\n        newTransfer.status = TransferStatusCode.Ordered;\n        \n        require(eDollars.hold(operationId,newTransfer.origin,newTransfer.target,newTransfer.operatorExchange,newTransfer.value),\"Error holding tokens\");\n    \n        newTransfer.status = TransferStatusCode.OnHold;\n        \n        emit TransferOrdered(\n            msg.sender,\n            operationId,\n            recipient,\n            operatorExchange,\n            value,\n            rate\n        );\n    \n        return true;\n    }\n    \n    function _approveTransfer(string memory operationId) internal returns(bool) {\n        bytes32 operationIdHash = operationId.toHash();\n\n        Transfer storage transferOnHold = orderedTransfers[operationIdHash];\n        require(transferOnHold.value != 0, \"This operationId doesn't exist\");\n        require(transferOnHold.status == TransferStatusCode.OnHold, \"A transfer can only be approved from status OnHold\");\n        transferOnHold.status = TransferStatusCode.Approved;\n        \n        emit TransferApproved(\n            transferOnHold.issuer,\n            operationId,\n            transferOnHold.value\n        );\n        \n        return true;\n    }\n    \n    function _sendDollarsToExchange(string memory operationId) internal returns(bool){\n        Transfer storage orderedTransfer = orderedTransfers[operationId.toHash()];\n        require(orderedTransfer.value != 0, \"This operationId doesn't exist\");\n        require(orderedTransfer.status == TransferStatusCode.FeeSet, \"A transfer can only be executed from status FeeSet\");\n        eDollars.executeHold(operationId,orderedTransfer.value);\n        orderedTransfer.status = TransferStatusCode.SendedToMarket;\n        emit SendedToMarket(msg.sender, operationId);\n        return true;\n    }\n    \n    function _changeDollarsToPesos(string memory operationId) internal returns(bool){\n        Transfer storage sendedMarketTransfer = orderedTransfers[operationId.toHash()];\n        require(sendedMarketTransfer.value != 0, \"This operationId doesn't exist\");\n        require(sendedMarketTransfer.status == TransferStatusCode.SendedToMarket, \"A transfer can only be executed from status SendedToMarket\");\n    //    eDollars.burn(sendedMarketTransfer.operatorExchange,sendedMarketTransfer.value.sub(sendedMarketTransfer.fee));\n        sendedMarketTransfer.valueExchanged = sendedMarketTransfer.value.sub(sendedMarketTransfer.fee).div(sendedMarketTransfer.rate).mul(10**uint256(ePesos.decimals()));\n        ePesos.mint(sendedMarketTransfer.operatorExchange, sendedMarketTransfer.valueExchanged);\n        sendedMarketTransfer.status = TransferStatusCode.Exchanged;\n        emit Exchanged(msg.sender, operationId);\n        return true;\n    }\n    \n    function  _sendPesosToRecepient(string memory operationId) internal returns(bool){\n        Transfer storage exchangedTransfer = orderedTransfers[operationId.toHash()];\n        require(exchangedTransfer.value != 0, \"This operationId doesn't exist\");\n        require(exchangedTransfer.status == TransferStatusCode.Exchanged, \"A transfer can only be executed from status Exchanged\");\n    //    uint256 valueToTransfer = exchangedTransfer.value.sub(exchangedTransfer.fee);\n        ePesos.transferFrom(exchangedTransfer.operatorExchange, exchangedTransfer.target, exchangedTransfer.valueExchanged);\n        exchangedTransfer.status = TransferStatusCode.Executed;\n        emit TransferExecuted(msg.sender, exchangedTransfer.issuer, operationId, exchangedTransfer.target, exchangedTransfer.valueExchanged);\n        return true;\n    }\n    \n    function _setFeeRate(string memory operationId, uint256 fee, uint256 rate) internal returns(bool){\n        Transfer storage orderedTransfer = orderedTransfers[operationId.toHash()];\n        require(orderedTransfer.value != 0, \"This operationId doesn't exist\");\n        require(orderedTransfer.status == TransferStatusCode.Approved, \"A transfer can only set fee from status Approved\");\n        require(fee >= 0, \"Fee must be greater than zero\");\n        require(rate > 0, \"Tasa must be greater than zero\");\n        orderedTransfer.fee = fee;\n        orderedTransfer.rate = rate;\n        orderedTransfer.status = TransferStatusCode.FeeSet;\n        emit FeeRateSet(msg.sender, operationId, fee, rate);\n        return true;\n    }\n    \n    function _checkTransfer(address to) private pure {\n        require(to != address(0), \"Payee address must not be zero address\");\n    }\n    \n    function setTransferAgent(address newTransferAgent) external returns(bool){\n        require(msg.sender == transferAgent, \"Only the Transfer Agent can give permissions\");\n        transferAgent = newTransferAgent;\n        return true;\n    }\n\n    function getDollarAddress() external view returns(address){\n        return address(eDollars);\n    }\n\n    function getPesosAddress() external view returns(address){\n        return address(ePesos);\n    }\n\n    event CrossBorderCreated(address eDollars, address ePesos); \n}",
  "sourcePath": "contracts/CrossBoarderPayment.sol",
  "abi": [
    {
      "inputs": [
        {
          "internalType": "address",
          "name": "_feeAgent",
          "type": "address"
        },
        {
          "internalType": "string",
          "name": "name",
          "type": "string"
        },
        {
          "internalType": "string",
          "name": "symbol",
          "type": "string"
        }
      ],
      "payable": false,
      "stateMutability": "nonpayable",
      "type": "constructor"
    },
    {
      "anonymous": false,
      "inputs": [
        {
          "indexed": false,
          "internalType": "address",
          "name": "eDollars",
          "type": "address"
        },
        {
          "indexed": false,
          "internalType": "address",
          "name": "ePesos",
          "type": "address"
        }
      ],
      "name": "CrossBorderCreated",
      "type": "event"
    },
    {
      "anonymous": false,
      "inputs": [
        {
          "indexed": true,
          "internalType": "address",
          "name": "issuer",
          "type": "address"
        },
        {
          "indexed": false,
          "internalType": "string",
          "name": "operationId",
          "type": "string"
        }
      ],
      "name": "Exchanged",
      "type": "event"
    },
    {
      "anonymous": false,
      "inputs": [
        {
          "indexed": true,
          "internalType": "address",
          "name": "operator",
          "type": "address"
        },
        {
          "indexed": false,
          "internalType": "string",
          "name": "operationId",
          "type": "string"
        },
        {
          "indexed": false,
          "internalType": "uint256",
          "name": "fee",
          "type": "uint256"
        },
        {
          "indexed": false,
          "internalType": "uint256",
          "name": "rate",
          "type": "uint256"
        }
      ],
      "name": "FeeRateSet",
      "type": "event"
    },
    {
      "anonymous": false,
      "inputs": [
        {
          "indexed": true,
          "internalType": "address",
          "name": "issuer",
          "type": "address"
        },
        {
          "indexed": false,
          "internalType": "string",
          "name": "operationId",
          "type": "string"
        }
      ],
      "name": "SendedToMarket",
      "type": "event"
    },
    {
      "anonymous": false,
      "inputs": [
        {
          "indexed": true,
          "internalType": "address",
          "name": "issuer",
          "type": "address"
        },
        {
          "indexed": false,
          "internalType": "string",
          "name": "operationId",
          "type": "string"
        },
        {
          "indexed": false,
          "internalType": "uint256",
          "name": "amount",
          "type": "uint256"
        }
      ],
      "name": "TransferApproved",
      "type": "event"
    },
    {
      "anonymous": false,
      "inputs": [
        {
          "indexed": true,
          "internalType": "address",
          "name": "issuer",
          "type": "address"
        },
        {
          "indexed": false,
          "internalType": "string",
          "name": "operationId",
          "type": "string"
        }
      ],
      "name": "TransferCancelled",
      "type": "event"
    },
    {
      "anonymous": false,
      "inputs": [
        {
          "indexed": true,
          "internalType": "address",
          "name": "issuer",
          "type": "address"
        },
        {
          "indexed": true,
          "internalType": "address",
          "name": "orderer",
          "type": "address"
        },
        {
          "indexed": false,
          "internalType": "string",
          "name": "operationId",
          "type": "string"
        },
        {
          "indexed": true,
          "internalType": "address",
          "name": "to",
          "type": "address"
        },
        {
          "indexed": false,
          "internalType": "uint256",
          "name": "value",
          "type": "uint256"
        }
      ],
      "name": "TransferExecuted",
      "type": "event"
    },
    {
      "anonymous": false,
      "inputs": [
        {
          "indexed": true,
          "internalType": "address",
          "name": "issuer",
          "type": "address"
        },
        {
          "indexed": false,
          "internalType": "string",
          "name": "operationId",
          "type": "string"
        }
      ],
      "name": "TransferOnHold",
      "type": "event"
    },
    {
      "anonymous": false,
      "inputs": [
        {
          "indexed": true,
          "internalType": "address",
          "name": "orderer",
          "type": "address"
        },
        {
          "indexed": false,
          "internalType": "string",
          "name": "operationId",
          "type": "string"
        },
        {
          "indexed": true,
          "internalType": "address",
          "name": "to",
          "type": "address"
        },
        {
          "indexed": true,
          "internalType": "address",
          "name": "operatorExchange",
          "type": "address"
        },
        {
          "indexed": false,
          "internalType": "uint256",
          "name": "value",
          "type": "uint256"
        },
        {
          "indexed": false,
          "internalType": "uint256",
          "name": "rate",
          "type": "uint256"
        }
      ],
      "name": "TransferOrdered",
      "type": "event"
    },
    {
      "constant": false,
      "inputs": [
        {
          "internalType": "string",
          "name": "operationId",
          "type": "string"
        }
      ],
      "name": "approveTransfer",
      "outputs": [
        {
          "internalType": "bool",
          "name": "",
          "type": "bool"
        }
      ],
      "payable": false,
      "stateMutability": "nonpayable",
      "type": "function"
    },
    {
      "constant": false,
      "inputs": [
        {
          "internalType": "string",
          "name": "operationId",
          "type": "string"
        }
      ],
      "name": "cancelTransfer",
      "outputs": [
        {
          "internalType": "bool",
          "name": "",
          "type": "bool"
        }
      ],
      "payable": false,
      "stateMutability": "nonpayable",
      "type": "function"
    },
    {
      "constant": false,
      "inputs": [
        {
          "internalType": "string",
          "name": "operationId",
          "type": "string"
        }
      ],
      "name": "changeDollarsToPesos",
      "outputs": [
        {
          "internalType": "bool",
          "name": "",
          "type": "bool"
        }
      ],
      "payable": false,
      "stateMutability": "nonpayable",
      "type": "function"
    },
    {
      "constant": true,
      "inputs": [],
      "name": "feeAgent",
      "outputs": [
        {
          "internalType": "address",
          "name": "",
          "type": "address"
        }
      ],
      "payable": false,
      "stateMutability": "view",
      "type": "function"
    },
    {
      "constant": true,
      "inputs": [],
      "name": "getDollarAddress",
      "outputs": [
        {
          "internalType": "address",
          "name": "",
          "type": "address"
        }
      ],
      "payable": false,
      "stateMutability": "view",
      "type": "function"
    },
    {
      "constant": true,
      "inputs": [],
      "name": "getPesosAddress",
      "outputs": [
        {
          "internalType": "address",
          "name": "",
          "type": "address"
        }
      ],
      "payable": false,
      "stateMutability": "view",
      "type": "function"
    },
    {
      "constant": false,
      "inputs": [
        {
          "internalType": "string",
          "name": "operationId",
          "type": "string"
        },
        {
          "internalType": "address",
          "name": "to",
          "type": "address"
        },
        {
          "internalType": "address",
          "name": "operatorExchange",
          "type": "address"
        },
        {
          "internalType": "uint256",
          "name": "value",
          "type": "uint256"
        },
        {
          "internalType": "uint256",
          "name": "rate",
          "type": "uint256"
        }
      ],
      "name": "orderTransfer",
      "outputs": [
        {
          "internalType": "bool",
          "name": "",
          "type": "bool"
        }
      ],
      "payable": false,
      "stateMutability": "nonpayable",
      "type": "function"
    },
    {
      "constant": true,
      "inputs": [
        {
          "internalType": "string",
          "name": "operationId",
          "type": "string"
        }
      ],
      "name": "retrieveTransferData",
      "outputs": [
        {
          "internalType": "address",
          "name": "origin",
          "type": "address"
        },
        {
          "internalType": "address",
          "name": "to",
          "type": "address"
        },
        {
          "internalType": "address",
          "name": "operatorExchange",
          "type": "address"
        },
        {
          "internalType": "uint256",
          "name": "value",
          "type": "uint256"
        },
        {
          "internalType": "uint256",
          "name": "fee",
          "type": "uint256"
        },
        {
          "internalType": "uint256",
          "name": "rate",
          "type": "uint256"
        },
        {
          "internalType": "uint256",
          "name": "estimatedRate",
          "type": "uint256"
        },
        {
          "internalType": "uint256",
          "name": "valueExchanged",
          "type": "uint256"
        },
        {
          "internalType": "enum ICrossBoarderPayment.TransferStatusCode",
          "name": "status",
          "type": "uint8"
        }
      ],
      "payable": false,
      "stateMutability": "view",
      "type": "function"
    },
    {
      "constant": false,
      "inputs": [
        {
          "internalType": "string",
          "name": "operationId",
          "type": "string"
        }
      ],
      "name": "sendDollarsToExchange",
      "outputs": [
        {
          "internalType": "bool",
          "name": "",
          "type": "bool"
        }
      ],
      "payable": false,
      "stateMutability": "nonpayable",
      "type": "function"
    },
    {
      "constant": false,
      "inputs": [
        {
          "internalType": "string",
          "name": "operationId",
          "type": "string"
        }
      ],
      "name": "sendPesosToRecepient",
      "outputs": [
        {
          "internalType": "bool",
          "name": "",
          "type": "bool"
        }
      ],
      "payable": false,
      "stateMutability": "nonpayable",
      "type": "function"
    },
    {
      "constant": false,
      "inputs": [
        {
          "internalType": "string",
          "name": "operationId",
          "type": "string"
        },
        {
          "internalType": "uint256",
          "name": "fee",
          "type": "uint256"
        },
        {
          "internalType": "uint256",
          "name": "rate",
          "type": "uint256"
        }
      ],
      "name": "setFeeRate",
      "outputs": [
        {
          "internalType": "bool",
          "name": "",
          "type": "bool"
        }
      ],
      "payable": false,
      "stateMutability": "nonpayable",
      "type": "function"
    },
    {
      "constant": false,
      "inputs": [
        {
          "internalType": "address",
          "name": "newTransferAgent",
          "type": "address"
        }
      ],
      "name": "setTransferAgent",
      "outputs": [
        {
          "internalType": "bool",
          "name": "",
          "type": "bool"
        }
      ],
      "payable": false,
      "stateMutability": "nonpayable",
      "type": "function"
    },
    {
      "constant": true,
      "inputs": [],
      "name": "transferAgent",
      "outputs": [
        {
          "internalType": "address",
          "name": "",
          "type": "address"
        }
      ],
      "payable": false,
      "stateMutability": "view",
      "type": "function"
    }
  ],
  "bytecode": "0x60806040523480156200001157600080fd5b5060405162007e5e38038062007e5e833981810160405260608110156200003757600080fd5b8101908080519060200190929190805160405193929190846401000000008211156200006257600080fd5b838201915060208201858111156200007957600080fd5b82518660018202830111640100000000821117156200009757600080fd5b8083526020830192505050908051906020019080838360005b83811015620000cd578082015181840152602081019050620000b0565b50505050905090810190601f168015620000fb5780820380516001836020036101000a031916815260200191505b50604052602001805160405193929190846401000000008211156200011f57600080fd5b838201915060208201858111156200013657600080fd5b82518660018202830111640100000000821117156200015457600080fd5b8083526020830192505050908051906020019080838360005b838110156200018a5780820151818401526020810190506200016d565b50505050905090810190601f168015620001b85780820380516001836020036101000a031916815260200191505b506040525050508181604051620001cf90620008ab565b808060200180602001838103835285818151815260200191508051906020019080838360005b8381101562000212578082015181840152602081019050620001f5565b50505050905090810190601f168015620002405780820380516001836020036101000a031916815260200191505b50838103825284818151815260200191508051906020019080838360005b838110156200027b5780820151818401526020810190506200025e565b50505050905090810190601f168015620002a95780820380516001836020036101000a031916815260200191505b50945050505050604051809103906000f080158015620002cd573d6000803e3d6000fd5b506000806101000a81548173ffffffffffffffffffffffffffffffffffffffff021916908373ffffffffffffffffffffffffffffffffffffffff16021790555081816040516200031d90620008ab565b808060200180602001838103835285818151815260200191508051906020019080838360005b838110156200036057808201518184015260208101905062000343565b50505050905090810190601f1680156200038e5780820380516001836020036101000a031916815260200191505b50838103825284818151815260200191508051906020019080838360005b83811015620003c9578082015181840152602081019050620003ac565b50505050905090810190601f168015620003f75780820380516001836020036101000a031916815260200191505b50945050505050604051809103906000f0801580156200041b573d6000803e3d6000fd5b50600160006101000a81548173ffffffffffffffffffffffffffffffffffffffff021916908373ffffffffffffffffffffffffffffffffffffffff1602179055506000809054906101000a900473ffffffffffffffffffffffffffffffffffffffff1673ffffffffffffffffffffffffffffffffffffffff1663983b2d56336040518263ffffffff1660e01b8152600401808273ffffffffffffffffffffffffffffffffffffffff1673ffffffffffffffffffffffffffffffffffffffff168152602001915050600060405180830381600087803b158015620004fd57600080fd5b505af115801562000512573d6000803e3d6000fd5b505050506000809054906101000a900473ffffffffffffffffffffffffffffffffffffffff1673ffffffffffffffffffffffffffffffffffffffff16637362d9c8336040518263ffffffff1660e01b8152600401808273ffffffffffffffffffffffffffffffffffffffff1673ffffffffffffffffffffffffffffffffffffffff168152602001915050600060405180830381600087803b158015620005b757600080fd5b505af1158015620005cc573d6000803e3d6000fd5b50505050600160009054906101000a900473ffffffffffffffffffffffffffffffffffffffff1673ffffffffffffffffffffffffffffffffffffffff1663983b2d56336040518263ffffffff1660e01b8152600401808273ffffffffffffffffffffffffffffffffffffffff1673ffffffffffffffffffffffffffffffffffffffff168152602001915050600060405180830381600087803b1580156200067257600080fd5b505af115801562000687573d6000803e3d6000fd5b50505050600160009054906101000a900473ffffffffffffffffffffffffffffffffffffffff1673ffffffffffffffffffffffffffffffffffffffff16637362d9c8336040518263ffffffff1660e01b8152600401808273ffffffffffffffffffffffffffffffffffffffff1673ffffffffffffffffffffffffffffffffffffffff168152602001915050600060405180830381600087803b1580156200072d57600080fd5b505af115801562000742573d6000803e3d6000fd5b5050505033600360006101000a81548173ffffffffffffffffffffffffffffffffffffffff021916908373ffffffffffffffffffffffffffffffffffffffff16021790555082600460006101000a81548173ffffffffffffffffffffffffffffffffffffffff021916908373ffffffffffffffffffffffffffffffffffffffff1602179055507fa878a0bf992765ae440f2e1cc535d1dcfba7a3a1c69491fca54cfd17c6668cfa6000809054906101000a900473ffffffffffffffffffffffffffffffffffffffff16600160009054906101000a900473ffffffffffffffffffffffffffffffffffffffff16604051808373ffffffffffffffffffffffffffffffffffffffff1673ffffffffffffffffffffffffffffffffffffffff1681526020018273ffffffffffffffffffffffffffffffffffffffff1673ffffffffffffffffffffffffffffffffffffffff1681526020019250505060405180910390a1505050620008b9565b6141a08062003cbe83390190565b6133f580620008c96000396000f3fe608060405234801561001057600080fd5b50600436106100cf5760003560e01c8063b0aefc841161008c578063c6aac30c11610066578063c6aac30c1461054b578063e1c2df34146105dc578063e97b709114610733578063eb26bdf1146107c4576100cf565b8063b0aefc84146103cb578063b6ab3bc91461045c578063be791e4a146104a6576100cf565b80631136bdd1146100d457806341b73476146101b95780635d5f2fb91461024a578063760cd8e1146102945780638c6a244c146102de578063a216bbfa1461033a575b600080fd5b61019f600480360360a08110156100ea57600080fd5b810190808035906020019064010000000081111561010757600080fd5b82018360208201111561011957600080fd5b8035906020019184600183028401116401000000008311171561013b57600080fd5b9091929391929390803573ffffffffffffffffffffffffffffffffffffffff169060200190929190803573ffffffffffffffffffffffffffffffffffffffff169060200190929190803590602001909291908035906020019092919050505061080e565b604051808215151515815260200191505060405180910390f35b610230600480360360208110156101cf57600080fd5b81019080803590602001906401000000008111156101ec57600080fd5b8201836020820111156101fe57600080fd5b8035906020019184600183028401116401000000008311171561022057600080fd5b9091929391929390505050610877565b604051808215151515815260200191505060405180910390f35b610252610974565b604051808273ffffffffffffffffffffffffffffffffffffffff1673ffffffffffffffffffffffffffffffffffffffff16815260200191505060405180910390f35b61029c61099d565b604051808273ffffffffffffffffffffffffffffffffffffffff1673ffffffffffffffffffffffffffffffffffffffff16815260200191505060405180910390f35b610320600480360360208110156102f457600080fd5b81019080803573ffffffffffffffffffffffffffffffffffffffff1690602001909291905050506109c3565b604051808215151515815260200191505060405180910390f35b6103b16004803603602081101561035057600080fd5b810190808035906020019064010000000081111561036d57600080fd5b82018360208201111561037f57600080fd5b803590602001918460018302840111640100000000831117156103a157600080fd5b9091929391929390505050610ab5565b604051808215151515815260200191505060405180910390f35b610442600480360360208110156103e157600080fd5b81019080803590602001906401000000008111156103fe57600080fd5b82018360208201111561041057600080fd5b8035906020019184600183028401116401000000008311171561043257600080fd5b9091929391929390505050610bb2565b604051808215151515815260200191505060405180910390f35b610464610f49565b604051808273ffffffffffffffffffffffffffffffffffffffff1673ffffffffffffffffffffffffffffffffffffffff16815260200191505060405180910390f35b610531600480360360608110156104bc57600080fd5b81019080803590602001906401000000008111156104d957600080fd5b8201836020820111156104eb57600080fd5b8035906020019184600183028401116401000000008311171561050d57600080fd5b90919293919293908035906020019092919080359060200190929190505050610f6f565b604051808215151515815260200191505060405180910390f35b6105c26004803603602081101561056157600080fd5b810190808035906020019064010000000081111561057e57600080fd5b82018360208201111561059057600080fd5b803590602001918460018302840111640100000000831117156105b257600080fd5b9091929391929390505050611070565b604051808215151515815260200191505060405180910390f35b610653600480360360208110156105f257600080fd5b810190808035906020019064010000000081111561060f57600080fd5b82018360208201111561062157600080fd5b8035906020019184600183028401116401000000008311171561064357600080fd5b909192939192939050505061116d565b604051808a73ffffffffffffffffffffffffffffffffffffffff1673ffffffffffffffffffffffffffffffffffffffff1681526020018973ffffffffffffffffffffffffffffffffffffffff1673ffffffffffffffffffffffffffffffffffffffff1681526020018873ffffffffffffffffffffffffffffffffffffffff1673ffffffffffffffffffffffffffffffffffffffff16815260200187815260200186815260200185815260200184815260200183815260200182600981111561071757fe5b60ff168152602001995050505050505050505060405180910390f35b6107aa6004803603602081101561074957600080fd5b810190808035906020019064010000000081111561076657600080fd5b82018360208201111561077857600080fd5b8035906020019184600183028401116401000000008311171561079a57600080fd5b909192939192939050505061129d565b604051808215151515815260200191505060405180910390f35b6107cc61139a565b604051808273ffffffffffffffffffffffffffffffffffffffff1673ffffffffffffffffffffffffffffffffffffffff16815260200191505060405180910390f35b6000610819856113c4565b61086b3388888080601f016020809104026020016040519081016040528093929190818152602001838380828437600081840152601f19601f820116905080830192505050505050508787878761144d565b90509695505050505050565b6000600360009054906101000a900473ffffffffffffffffffffffffffffffffffffffff1673ffffffffffffffffffffffffffffffffffffffff163373ffffffffffffffffffffffffffffffffffffffff161461091f576040517f08c379a000000000000000000000000000000000000000000000000000000000815260040180806020018281038252603b8152602001806132c9603b913960400191505060405180910390fd5b61096c83838080601f016020809104026020016040519081016040528093929190818152602001838380828437600081840152601f19601f82011690508083019250505050505050611d46565b905092915050565b60008060009054906101000a900473ffffffffffffffffffffffffffffffffffffffff16905090565b600360009054906101000a900473ffffffffffffffffffffffffffffffffffffffff1681565b6000600360009054906101000a900473ffffffffffffffffffffffffffffffffffffffff1673ffffffffffffffffffffffffffffffffffffffff163373ffffffffffffffffffffffffffffffffffffffff1614610a6b576040517f08c379a000000000000000000000000000000000000000000000000000000000815260040180806020018281038252602c815260200180613212602c913960400191505060405180910390fd5b81600360006101000a81548173ffffffffffffffffffffffffffffffffffffffff021916908373ffffffffffffffffffffffffffffffffffffffff16021790555060019050919050565b6000600360009054906101000a900473ffffffffffffffffffffffffffffffffffffffff1673ffffffffffffffffffffffffffffffffffffffff163373ffffffffffffffffffffffffffffffffffffffff1614610b5d576040517f08c379a00000000000000000000000000000000000000000000000000000000081526004018080602001828103825260338152602001806131556033913960400191505060405180910390fd5b610baa83838080601f016020809104026020016040519081016040528093929190818152602001838380828437600081840152601f19601f8201169050808301925050505050505061212b565b905092915050565b600080610c0284848080601f016020809104026020016040519081016040528093929190818152602001838380828437600081840152601f19601f8201169050808301925050505050505061235f565b9050600060026000838152602001908152602001600020905060016009811115610c2857fe5b8160090160009054906101000a900460ff166009811115610c4557fe5b14610c9b576040517f08c379a00000000000000000000000000000000000000000000000000000000081526004018080602001828103825260328152602001806131e06032913960400191505060405180910390fd5b8060000160009054906101000a900473ffffffffffffffffffffffffffffffffffffffff1673ffffffffffffffffffffffffffffffffffffffff163373ffffffffffffffffffffffffffffffffffffffff161480610d4857508060010160009054906101000a900473ffffffffffffffffffffffffffffffffffffffff1673ffffffffffffffffffffffffffffffffffffffff163373ffffffffffffffffffffffffffffffffffffffff16145b610d9d576040517f08c379a000000000000000000000000000000000000000000000000000000000815260040180806020018281038252604881526020018061310d6048913960600191505060405180910390fd5b6000809054906101000a900473ffffffffffffffffffffffffffffffffffffffff1673ffffffffffffffffffffffffffffffffffffffff16638e4a5a9286866040518363ffffffff1660e01b815260040180806020018281038252848482818152602001925080828437600081840152601f19601f8201169050808301925050509350505050602060405180830381600087803b158015610e3d57600080fd5b505af1158015610e51573d6000803e3d6000fd5b505050506040513d6020811015610e6757600080fd5b81019080805190602001909291905050505060098160090160006101000a81548160ff02191690836009811115610e9a57fe5b02179055508060000160009054906101000a900473ffffffffffffffffffffffffffffffffffffffff1673ffffffffffffffffffffffffffffffffffffffff167ff8bdc32e3214bc0618f2e71323ca0f82d89f6057787a7defb55d4ed4cfa47cdf868660405180806020018281038252848482818152602001925080828437600081840152601f19601f820116905080830192505050935050505060405180910390a260019250505092915050565b600460009054906101000a900473ffffffffffffffffffffffffffffffffffffffff1681565b6000600460009054906101000a900473ffffffffffffffffffffffffffffffffffffffff1673ffffffffffffffffffffffffffffffffffffffff163373ffffffffffffffffffffffffffffffffffffffff1614611017576040517f08c379a000000000000000000000000000000000000000000000000000000000815260040180806020018281038252602d815260200180613336602d913960400191505060405180910390fd5b61106685858080601f016020809104026020016040519081016040528093929190818152602001838380828437600081840152601f19601f8201169050808301925050505050505084846123f4565b9050949350505050565b6000600360009054906101000a900473ffffffffffffffffffffffffffffffffffffffff1673ffffffffffffffffffffffffffffffffffffffff163373ffffffffffffffffffffffffffffffffffffffff1614611118576040517f08c379a000000000000000000000000000000000000000000000000000000000815260040180806020018281038252603b8152602001806132c9603b913960400191505060405180910390fd5b61116583838080601f016020809104026020016040519081016040528093929190818152602001838380828437600081840152601f19601f82011690508083019250505050505050612703565b905092915050565b6000806000806000806000806000806111c98c8c8080601f016020809104026020016040519081016040528093929190818152602001838380828437600081840152601f19601f8201169050808301925050505050505061235f565b905060006002600083815260200190815260200160002090508060010160009054906101000a900473ffffffffffffffffffffffffffffffffffffffff168160020160009054906101000a900473ffffffffffffffffffffffffffffffffffffffff168260030160009054906101000a900473ffffffffffffffffffffffffffffffffffffffff16836004015484600501548560060154866007015487600801548860090160009054906101000a900460ff169a509a509a509a509a509a509a509a509a5050509295985092959850929598565b6000600360009054906101000a900473ffffffffffffffffffffffffffffffffffffffff1673ffffffffffffffffffffffffffffffffffffffff163373ffffffffffffffffffffffffffffffffffffffff1614611345576040517f08c379a000000000000000000000000000000000000000000000000000000000815260040180806020018281038252603b8152602001806132c9603b913960400191505060405180910390fd5b61139283838080601f016020809104026020016040519081016040528093929190818152602001838380828437600081840152601f19601f82011690508083019250505050505050612b01565b905092915050565b6000600160009054906101000a900473ffffffffffffffffffffffffffffffffffffffff16905090565b600073ffffffffffffffffffffffffffffffffffffffff168173ffffffffffffffffffffffffffffffffffffffff16141561144a576040517f08c379a00000000000000000000000000000000000000000000000000000000081526004018080602001828103825260268152602001806131ba6026913960400191505060405180910390fd5b50565b6000806002600061145d8961235f565b8152602001908152602001600020905060008160040154146114e7576040517f08c379a000000000000000000000000000000000000000000000000000000000815260040180806020018281038252601f8152602001807f54686973206f7065726174696f6e496420616c7265616479206578697374730081525060200191505060405180910390fd5b600073ffffffffffffffffffffffffffffffffffffffff168573ffffffffffffffffffffffffffffffffffffffff16141561156d576040517f08c379a00000000000000000000000000000000000000000000000000000000081526004018080602001828103825260298152602001806133636029913960400191505060405180910390fd5b600084116115e3576040517f08c379a000000000000000000000000000000000000000000000000000000000815260040180806020018281038252601f8152602001807f56616c7565206d7573742062652067726561746572207468616e207a65726f0081525060200191505060405180910390fd5b836000809054906101000a900473ffffffffffffffffffffffffffffffffffffffff1673ffffffffffffffffffffffffffffffffffffffff166370a082318a6040518263ffffffff1660e01b8152600401808273ffffffffffffffffffffffffffffffffffffffff1673ffffffffffffffffffffffffffffffffffffffff16815260200191505060206040518083038186803b15801561168257600080fd5b505afa158015611696573d6000803e3d6000fd5b505050506040513d60208110156116ac57600080fd5b810190808051906020019092919050505011611713576040517f08c379a00000000000000000000000000000000000000000000000000000000081526004018080602001828103825260278152602001806130e66027913960400191505060405180910390fd5b600160009054906101000a900473ffffffffffffffffffffffffffffffffffffffff1673ffffffffffffffffffffffffffffffffffffffff16633af32abf876040518263ffffffff1660e01b8152600401808273ffffffffffffffffffffffffffffffffffffffff1673ffffffffffffffffffffffffffffffffffffffff16815260200191505060206040518083038186803b1580156117b257600080fd5b505afa1580156117c6573d6000803e3d6000fd5b505050506040513d60208110156117dc57600080fd5b8101908080519060200190929190505050611842576040517f08c379a00000000000000000000000000000000000000000000000000000000081526004018080602001828103825260258152602001806130c16025913960400191505060405180910390fd5b338160000160006101000a81548173ffffffffffffffffffffffffffffffffffffffff021916908373ffffffffffffffffffffffffffffffffffffffff160217905550878160010160006101000a81548173ffffffffffffffffffffffffffffffffffffffff021916908373ffffffffffffffffffffffffffffffffffffffff160217905550858160020160006101000a81548173ffffffffffffffffffffffffffffffffffffffff021916908373ffffffffffffffffffffffffffffffffffffffff160217905550848160030160006101000a81548173ffffffffffffffffffffffffffffffffffffffff021916908373ffffffffffffffffffffffffffffffffffffffff16021790555083816004018190555082816007018190555060018160090160006101000a81548160ff0219169083600981111561198157fe5b02179055506000809054906101000a900473ffffffffffffffffffffffffffffffffffffffff1673ffffffffffffffffffffffffffffffffffffffff1663514f81f5888360010160009054906101000a900473ffffffffffffffffffffffffffffffffffffffff168460020160009054906101000a900473ffffffffffffffffffffffffffffffffffffffff168560030160009054906101000a900473ffffffffffffffffffffffffffffffffffffffff1686600401546040518663ffffffff1660e01b815260040180806020018673ffffffffffffffffffffffffffffffffffffffff1673ffffffffffffffffffffffffffffffffffffffff1681526020018573ffffffffffffffffffffffffffffffffffffffff1673ffffffffffffffffffffffffffffffffffffffff1681526020018473ffffffffffffffffffffffffffffffffffffffff1673ffffffffffffffffffffffffffffffffffffffff168152602001838152602001828103825287818151815260200191508051906020019080838360005b83811015611b23578082015181840152602081019050611b08565b50505050905090810190601f168015611b505780820380516001836020036101000a031916815260200191505b509650505050505050602060405180830381600087803b158015611b7357600080fd5b505af1158015611b87573d6000803e3d6000fd5b505050506040513d6020811015611b9d57600080fd5b8101908080519060200190929190505050611c20576040517f08c379a00000000000000000000000000000000000000000000000000000000081526004018080602001828103825260148152602001807f4572726f7220686f6c64696e6720746f6b656e7300000000000000000000000081525060200191505060405180910390fd5b60028160090160006101000a81548160ff02191690836009811115611c4157fe5b02179055508473ffffffffffffffffffffffffffffffffffffffff168673ffffffffffffffffffffffffffffffffffffffff163373ffffffffffffffffffffffffffffffffffffffff167f1fa88cad0e0f698970fab55607b5ebfc854817a2d2c7a9b3e829d0866a8067e78a88886040518080602001848152602001838152602001828103825285818151815260200191508051906020019080838360005b83811015611cfb578082015181840152602081019050611ce0565b50505050905090810190601f168015611d285780820380516001836020036101000a031916815260200191505b5094505050505060405180910390a460019150509695505050505050565b60008060026000611d568561235f565b81526020019081526020016000209050600081600401541415611de1576040517f08c379a000000000000000000000000000000000000000000000000000000000815260040180806020018281038252601e8152602001807f54686973206f7065726174696f6e496420646f65736e2774206578697374000081525060200191505060405180910390fd5b60066009811115611dee57fe5b8160090160009054906101000a900460ff166009811115611e0b57fe5b14611e61576040517f08c379a000000000000000000000000000000000000000000000000000000000815260040180806020018281038252603581526020018061338c6035913960400191505060405180910390fd5b600160009054906101000a900473ffffffffffffffffffffffffffffffffffffffff1673ffffffffffffffffffffffffffffffffffffffff166323b872dd8260030160009054906101000a900473ffffffffffffffffffffffffffffffffffffffff168360020160009054906101000a900473ffffffffffffffffffffffffffffffffffffffff1684600801546040518463ffffffff1660e01b8152600401808473ffffffffffffffffffffffffffffffffffffffff1673ffffffffffffffffffffffffffffffffffffffff1681526020018373ffffffffffffffffffffffffffffffffffffffff1673ffffffffffffffffffffffffffffffffffffffff1681526020018281526020019350505050602060405180830381600087803b158015611f8a57600080fd5b505af1158015611f9e573d6000803e3d6000fd5b505050506040513d6020811015611fb457600080fd5b81019080805190602001909291905050505060078160090160006101000a81548160ff02191690836009811115611fe757fe5b02179055508060020160009054906101000a900473ffffffffffffffffffffffffffffffffffffffff1673ffffffffffffffffffffffffffffffffffffffff168160000160009054906101000a900473ffffffffffffffffffffffffffffffffffffffff1673ffffffffffffffffffffffffffffffffffffffff163373ffffffffffffffffffffffffffffffffffffffff167f409b2602763aef65469e8a34108db217c5664ef1cb6b5eb5cf63bd946f2e4ee08685600801546040518080602001838152602001828103825284818151815260200191508051906020019080838360005b838110156120e65780820151818401526020810190506120cb565b50505050905090810190601f1680156121135780820380516001836020036101000a031916815260200191505b50935050505060405180910390a46001915050919050565b6000806121378361235f565b905060006002600083815260200190815260200160002090506000816004015414156121cb576040517f08c379a000000000000000000000000000000000000000000000000000000000815260040180806020018281038252601e8152602001807f54686973206f7065726174696f6e496420646f65736e2774206578697374000081525060200191505060405180910390fd5b600260098111156121d857fe5b8160090160009054906101000a900460ff1660098111156121f557fe5b1461224b576040517f08c379a00000000000000000000000000000000000000000000000000000000081526004018080602001828103825260328152602001806131886032913960400191505060405180910390fd5b60038160090160006101000a81548160ff0219169083600981111561226c57fe5b02179055508060000160009054906101000a900473ffffffffffffffffffffffffffffffffffffffff1673ffffffffffffffffffffffffffffffffffffffff167f55bdc159e06129409554f3fd0913c9b2ed6a7c3e7dfdf3bf17fe29617107ca6b8583600401546040518080602001838152602001828103825284818151815260200191508051906020019080838360005b838110156123195780820151818401526020810190506122fe565b50505050905090810190601f1680156123465780820380516001836020036101000a031916815260200191505b50935050505060405180910390a2600192505050919050565b6000816040516020018080602001828103825283818151815260200191508051906020019080838360005b838110156123a557808201518184015260208101905061238a565b50505050905090810190601f1680156123d25780820380516001836020036101000a031916815260200191505b5092505050604051602081830303815290604052805190602001209050919050565b600080600260006124048761235f565b8152602001908152602001600020905060008160040154141561248f576040517f08c379a000000000000000000000000000000000000000000000000000000000815260040180806020018281038252601e8152602001807f54686973206f7065726174696f6e496420646f65736e2774206578697374000081525060200191505060405180910390fd5b6003600981111561249c57fe5b8160090160009054906101000a900460ff1660098111156124b957fe5b1461250f576040517f08c379a000000000000000000000000000000000000000000000000000000000815260040180806020018281038252603081526020018061323e6030913960400191505060405180910390fd5b6000841015612586576040517f08c379a000000000000000000000000000000000000000000000000000000000815260040180806020018281038252601d8152602001807f466565206d7573742062652067726561746572207468616e207a65726f00000081525060200191505060405180910390fd5b600083116125fc576040517f08c379a000000000000000000000000000000000000000000000000000000000815260040180806020018281038252601e8152602001807f54617361206d7573742062652067726561746572207468616e207a65726f000081525060200191505060405180910390fd5b83816005018190555082816006018190555060048160090160006101000a81548160ff0219169083600981111561262f57fe5b02179055503373ffffffffffffffffffffffffffffffffffffffff167fb5989af290f7f54033914b41b52f652561137ceb5a9cf077e82117970660ce748686866040518080602001848152602001838152602001828103825285818151815260200191508051906020019080838360005b838110156126bb5780820151818401526020810190506126a0565b50505050905090810190601f1680156126e85780820380516001836020036101000a031916815260200191505b5094505050505060405180910390a260019150509392505050565b600080600260006127138561235f565b8152602001908152602001600020905060008160040154141561279e576040517f08c379a000000000000000000000000000000000000000000000000000000000815260040180806020018281038252601e8152602001807f54686973206f7065726174696f6e496420646f65736e2774206578697374000081525060200191505060405180910390fd5b600560098111156127ab57fe5b8160090160009054906101000a900460ff1660098111156127c857fe5b1461281e576040517f08c379a000000000000000000000000000000000000000000000000000000000815260040180806020018281038252603a81526020018061328f603a913960400191505060405180910390fd5b612909600160009054906101000a900473ffffffffffffffffffffffffffffffffffffffff1673ffffffffffffffffffffffffffffffffffffffff1663313ce5676040518163ffffffff1660e01b815260040160206040518083038186803b15801561288957600080fd5b505afa15801561289d573d6000803e3d6000fd5b505050506040513d60208110156128b357600080fd5b810190808051906020019092919050505060ff16600a0a6128fb83600601546128ed85600501548660040154612e2090919063ffffffff16565b612e6a90919063ffffffff16565b612eb490919063ffffffff16565b8160080181905550600160009054906101000a900473ffffffffffffffffffffffffffffffffffffffff1673ffffffffffffffffffffffffffffffffffffffff166340c10f198260030160009054906101000a900473ffffffffffffffffffffffffffffffffffffffff1683600801546040518363ffffffff1660e01b8152600401808373ffffffffffffffffffffffffffffffffffffffff1673ffffffffffffffffffffffffffffffffffffffff16815260200182815260200192505050602060405180830381600087803b1580156129e257600080fd5b505af11580156129f6573d6000803e3d6000fd5b505050506040513d6020811015612a0c57600080fd5b81019080805190602001909291905050505060068160090160006101000a81548160ff02191690836009811115612a3f57fe5b02179055503373ffffffffffffffffffffffffffffffffffffffff167f5841cdf8ed5de325d68f23a5fc071d40224d7ba42ac9cbb8280e58748e13367a846040518080602001828103825283818151815260200191508051906020019080838360005b83811015612abd578082015181840152602081019050612aa2565b50505050905090810190601f168015612aea5780820380516001836020036101000a031916815260200191505b509250505060405180910390a26001915050919050565b60008060026000612b118561235f565b81526020019081526020016000209050600081600401541415612b9c576040517f08c379a000000000000000000000000000000000000000000000000000000000815260040180806020018281038252601e8152602001807f54686973206f7065726174696f6e496420646f65736e2774206578697374000081525060200191505060405180910390fd5b60046009811115612ba957fe5b8160090160009054906101000a900460ff166009811115612bc657fe5b14612c1c576040517f08c379a00000000000000000000000000000000000000000000000000000000081526004018080602001828103825260328152602001806133046032913960400191505060405180910390fd5b6000809054906101000a900473ffffffffffffffffffffffffffffffffffffffff1673ffffffffffffffffffffffffffffffffffffffff1663da7d3d048483600401546040518363ffffffff1660e01b81526004018080602001838152602001828103825284818151815260200191508051906020019080838360005b83811015612cb4578082015181840152602081019050612c99565b50505050905090810190601f168015612ce15780820380516001836020036101000a031916815260200191505b509350505050602060405180830381600087803b158015612d0157600080fd5b505af1158015612d15573d6000803e3d6000fd5b505050506040513d6020811015612d2b57600080fd5b81019080805190602001909291905050505060058160090160006101000a81548160ff02191690836009811115612d5e57fe5b02179055503373ffffffffffffffffffffffffffffffffffffffff167fda3fde186ae6c314952e40e58304f26b061db4bc0b4e216cc281e72f14639cc3846040518080602001828103825283818151815260200191508051906020019080838360005b83811015612ddc578082015181840152602081019050612dc1565b50505050905090810190601f168015612e095780820380516001836020036101000a031916815260200191505b509250505060405180910390a26001915050919050565b6000612e6283836040518060400160405280601e81526020017f536166654d6174683a207375627472616374696f6e206f766572666c6f770000815250612f3a565b905092915050565b6000612eac83836040518060400160405280601a81526020017f536166654d6174683a206469766973696f6e206279207a65726f000000000000815250612ffa565b905092915050565b600080831415612ec75760009050612f34565b6000828402905082848281612ed857fe5b0414612f2f576040517f08c379a000000000000000000000000000000000000000000000000000000000815260040180806020018281038252602181526020018061326e6021913960400191505060405180910390fd5b809150505b92915050565b6000838311158290612fe7576040517f08c379a00000000000000000000000000000000000000000000000000000000081526004018080602001828103825283818151815260200191508051906020019080838360005b83811015612fac578082015181840152602081019050612f91565b50505050905090810190601f168015612fd95780820380516001836020036101000a031916815260200191505b509250505060405180910390fd5b5060008385039050809150509392505050565b600080831182906130a6576040517f08c379a00000000000000000000000000000000000000000000000000000000081526004018080602001828103825283818151815260200191508051906020019080838360005b8381101561306b578082015181840152602081019050613050565b50505050905090810190601f1680156130985780820380516001836020036101000a031916815260200191505b509250505060405180910390fd5b5060008385816130b257fe5b04905080915050939250505056fe44657374696e6174696f6e204163636f756e742069736e27742077686974656c69737465644163636f756e7420646f65736e2774206861766520666f756e647320746f207472616e7366657241207472616e736665722063616e206f6e6c792062652063616e63656c6c656420627920746865206f726465726572206f72207468652077616c6c6574546f4265506169644f757441207472616e736665722063616e206f6e6c7920626520617070726f7665642062792074686520436974692773204167656e7441207472616e736665722063616e206f6e6c7920626520617070726f7665642066726f6d20737461747573204f6e486f6c6450617965652061646472657373206d757374206e6f74206265207a65726f206164647265737341207472616e736665722063616e206f6e6c792062652063616e63656c6c656420696e20737461747573204f7264657265644f6e6c7920746865205472616e73666572204167656e742063616e2067697665207065726d697373696f6e7341207472616e736665722063616e206f6e6c7920736574206665652066726f6d2073746174757320417070726f766564536166654d6174683a206d756c7469706c69636174696f6e206f766572666c6f7741207472616e736665722063616e206f6e6c792062652065786563757465642066726f6d207374617475732053656e646564546f4d61726b657441207472616e736665722063616e206f6e6c792062652065786563757465642062792074686520436974692773207472616e736665724167656e7441207472616e736665722063616e206f6e6c792062652065786563757465642066726f6d2073746174757320466565536574536574206665652063616e206f6e6c792062652065786563757465642062792074686520666565206167656e744f70657261746f722061646472657373206d757374206e6f74206265207a65726f206164647265737341207472616e736665722063616e206f6e6c792062652065786563757465642066726f6d207374617475732045786368616e676564a265627a7a72315820feba6ef60ef0ad6c739faddc5fa0cc264dc65fccfd223ae8e3707098f5dd1cb564736f6c6343000511003260806040523480156200001157600080fd5b50604051620041a0380380620041a0833981810160405260408110156200003757600080fd5b81019080805160405193929190846401000000008211156200005857600080fd5b838201915060208201858111156200006f57600080fd5b82518660018202830111640100000000821117156200008d57600080fd5b8083526020830192505050908051906020019080838360005b83811015620000c3578082015181840152602081019050620000a6565b50505050905090810190601f168015620000f15780820380516001836020036101000a031916815260200191505b50604052602001805160405193929190846401000000008211156200011557600080fd5b838201915060208201858111156200012c57600080fd5b82518660018202830111640100000000821117156200014a57600080fd5b8083526020830192505050908051906020019080838360005b838110156200018057808201518184015260208101905062000163565b50505050905090810190601f168015620001ae5780820380516001836020036101000a031916815260200191505b50604052505050620001d5620001c96200026b60201b60201c565b6200027360201b60201c565b620001f5620001e96200026b60201b60201c565b620002d460201b60201c565b62000215620002096200026b60201b60201c565b6200033560201b60201c565b81600a90805190602001906200022d9291906200055a565b5080600b9080519060200190620002469291906200055a565b506004600c60006101000a81548160ff021916908360ff160217905550505062000609565b600033905090565b6200028e8160036200039660201b6200362b1790919060201c565b8073ffffffffffffffffffffffffffffffffffffffff167f6ae172837ea30b801fbfcdd4108aa1d5bf8ff775444fd70256b44e6bf3dfc3f660405160405180910390a250565b620002ef8160046200039660201b6200362b1790919060201c565b8073ffffffffffffffffffffffffffffffffffffffff167f9894d458cf29e8bc4eb7e591bac54b31dc90125dfa852474419972ab4347dd1260405160405180910390a250565b620003508160056200039660201b6200362b1790919060201c565b8073ffffffffffffffffffffffffffffffffffffffff167f22380c05984257a1cb900161c713dd71d39e74820f1aea43bd3f1bdd2096129960405160405180910390a250565b620003a882826200047a60201b60201c565b156200041c576040517f08c379a000000000000000000000000000000000000000000000000000000000815260040180806020018281038252601f8152602001807f526f6c65733a206163636f756e7420616c72656164792068617320726f6c650081525060200191505060405180910390fd5b60018260000160008373ffffffffffffffffffffffffffffffffffffffff1673ffffffffffffffffffffffffffffffffffffffff16815260200190815260200160002060006101000a81548160ff0219169083151502179055505050565b60008073ffffffffffffffffffffffffffffffffffffffff168273ffffffffffffffffffffffffffffffffffffffff16141562000503576040517f08c379a00000000000000000000000000000000000000000000000000000000081526004018080602001828103825260228152602001806200417e6022913960400191505060405180910390fd5b8260000160008373ffffffffffffffffffffffffffffffffffffffff1673ffffffffffffffffffffffffffffffffffffffff16815260200190815260200160002060009054906101000a900460ff16905092915050565b828054600181600116156101000203166002900490600052602060002090601f016020900481019282601f106200059d57805160ff1916838001178555620005ce565b82800160010185558215620005ce579182015b82811115620005cd578251825591602001919060010190620005b0565b5b509050620005dd9190620005e1565b5090565b6200060691905b8082111562000602576000816000905550600101620005e8565b5090565b90565b613b6580620006196000396000f3fe608060405234801561001057600080fd5b50600436106101f05760003560e01c80637362d9c81161010f578063aa271e1a116100a2578063d4d7b19a11610071578063d4d7b19a14610be3578063d6cd947314610c3f578063da7d3d0414610c49578063dd62ed3e14610d26576101f0565b8063aa271e1a14610a8f578063ac1e17df14610aeb578063bb5f747b14610b2f578063c5a468c614610b8b576101f0565b806398650275116100de57806398650275146109535780639dc29fac1461095d578063a457c2d7146109c3578063a9059cbb14610a29576101f0565b80637362d9c8146107755780638e4a5a92146107b957806395d89b411461088c578063983b2d561461090f576101f0565b806339509351116101875780634c5a628c116101565780634c5a628c146105b8578063514f81f5146105c257806351bfb961146106ff57806370a082311461071d576101f0565b806339509351146104865780633af32abf146104ec57806340c10f191461054857806343687e62146105ae576101f0565b806318160ddd116101c357806318160ddd1461037a57806323b872dd14610398578063291d95491461041e578063313ce56714610462576101f0565b806306fdde03146101f5578063095ea7b3146102785780630b986a50146102de57806310154bad14610336575b600080fd5b6101fd610d9e565b6040518080602001828103825283818151815260200191508051906020019080838360005b8381101561023d578082015181840152602081019050610222565b50505050905090810190601f16801561026a5780820380516001836020036101000a031916815260200191505b509250505060405180910390f35b6102c46004803603604081101561028e57600080fd5b81019080803573ffffffffffffffffffffffffffffffffffffffff16906020019092919080359060200190929190505050610e40565b604051808215151515815260200191505060405180910390f35b610320600480360360208110156102f457600080fd5b81019080803573ffffffffffffffffffffffffffffffffffffffff169060200190929190505050610e5e565b6040518082815260200191505060405180910390f35b6103786004803603602081101561034c57600080fd5b81019080803573ffffffffffffffffffffffffffffffffffffffff169060200190929190505050610e70565b005b610382610ee1565b6040518082815260200191505060405180910390f35b610404600480360360608110156103ae57600080fd5b81019080803573ffffffffffffffffffffffffffffffffffffffff169060200190929190803573ffffffffffffffffffffffffffffffffffffffff16906020019092919080359060200190929190505050610eeb565b604051808215151515815260200191505060405180910390f35b6104606004803603602081101561043457600080fd5b81019080803573ffffffffffffffffffffffffffffffffffffffff169060200190929190505050610fe6565b005b61046a611057565b604051808260ff1660ff16815260200191505060405180910390f35b6104d26004803603604081101561049c57600080fd5b81019080803573ffffffffffffffffffffffffffffffffffffffff1690602001909291908035906020019092919050505061106e565b604051808215151515815260200191505060405180910390f35b61052e6004803603602081101561050257600080fd5b81019080803573ffffffffffffffffffffffffffffffffffffffff169060200190929190505050611121565b604051808215151515815260200191505060405180910390f35b6105946004803603604081101561055e57600080fd5b81019080803573ffffffffffffffffffffffffffffffffffffffff1690602001909291908035906020019092919050505061113e565b604051808215151515815260200191505060405180910390f35b6105b6611234565b005b6105c0611246565b005b6106e5600480360360a08110156105d857600080fd5b81019080803590602001906401000000008111156105f557600080fd5b82018360208201111561060757600080fd5b8035906020019184600183028401116401000000008311171561062957600080fd5b91908080601f016020809104026020016040519081016040528093929190818152602001838380828437600081840152601f19601f820116905080830192505050505050509192919290803573ffffffffffffffffffffffffffffffffffffffff169060200190929190803573ffffffffffffffffffffffffffffffffffffffff169060200190929190803573ffffffffffffffffffffffffffffffffffffffff16906020019092919080359060200190929190505050611258565b604051808215151515815260200191505060405180910390f35b6107076112e1565b6040518082815260200191505060405180910390f35b61075f6004803603602081101561073357600080fd5b81019080803573ffffffffffffffffffffffffffffffffffffffff1690602001909291905050506112eb565b6040518082815260200191505060405180910390f35b6107b76004803603602081101561078b57600080fd5b81019080803573ffffffffffffffffffffffffffffffffffffffff16906020019092919050505061134e565b005b610872600480360360208110156107cf57600080fd5b81019080803590602001906401000000008111156107ec57600080fd5b8201836020820111156107fe57600080fd5b8035906020019184600183028401116401000000008311171561082057600080fd5b91908080601f016020809104026020016040519081016040528093929190818152602001838380828437600081840152601f19601f8201169050808301925050505050505091929192905050506113bf565b604051808215151515815260200191505060405180910390f35b610894611457565b6040518080602001828103825283818151815260200191508051906020019080838360005b838110156108d45780820151818401526020810190506108b9565b50505050905090810190601f1680156109015780820380516001836020036101000a031916815260200191505b509250505060405180910390f35b6109516004803603602081101561092557600080fd5b81019080803573ffffffffffffffffffffffffffffffffffffffff1690602001909291905050506114f9565b005b61095b61156a565b005b6109a96004803603604081101561097357600080fd5b81019080803573ffffffffffffffffffffffffffffffffffffffff1690602001909291908035906020019092919050505061157c565b604051808215151515815260200191505060405180910390f35b610a0f600480360360408110156109d957600080fd5b81019080803573ffffffffffffffffffffffffffffffffffffffff16906020019092919080359060200190929190505050611675565b604051808215151515815260200191505060405180910390f35b610a7560048036036040811015610a3f57600080fd5b81019080803573ffffffffffffffffffffffffffffffffffffffff16906020019092919080359060200190929190505050611742565b604051808215151515815260200191505060405180910390f35b610ad160048036036020811015610aa557600080fd5b81019080803573ffffffffffffffffffffffffffffffffffffffff169060200190929190505050611839565b604051808215151515815260200191505060405180910390f35b610b2d60048036036020811015610b0157600080fd5b81019080803573ffffffffffffffffffffffffffffffffffffffff169060200190929190505050611856565b005b610b7160048036036020811015610b4557600080fd5b81019080803573ffffffffffffffffffffffffffffffffffffffff1690602001909291905050506118c7565b604051808215151515815260200191505060405180910390f35b610bcd60048036036020811015610ba157600080fd5b81019080803573ffffffffffffffffffffffffffffffffffffffff1690602001909291905050506118e4565b6040518082815260200191505060405180910390f35b610c2560048036036020811015610bf957600080fd5b81019080803573ffffffffffffffffffffffffffffffffffffffff16906020019092919050505061192d565b604051808215151515815260200191505060405180910390f35b610c4761194a565b005b610d0c60048036036040811015610c5f57600080fd5b8101908080359060200190640100000000811115610c7c57600080fd5b820183602082011115610c8e57600080fd5b80359060200191846001830284011164010000000083111715610cb057600080fd5b91908080601f016020809104026020016040519081016040528093929190818152602001838380828437600081840152601f19601f8201169050808301925050505050505091929192908035906020019092919050505061195c565b604051808215151515815260200191505060405180910390f35b610d8860048036036040811015610d3c57600080fd5b81019080803573ffffffffffffffffffffffffffffffffffffffff169060200190929190803573ffffffffffffffffffffffffffffffffffffffff1690602001909291905050506119d5565b6040518082815260200191505060405180910390f35b6060600a8054600181600116156101000203166002900480601f016020809104026020016040519081016040528092919081815260200182805460018160011615610100020316600290048015610e365780601f10610e0b57610100808354040283529160200191610e36565b820191906000526020600020905b815481529060010190602001808311610e1957829003601f168201915b5050505050905090565b6000610e54610e4d611a5c565b8484611a64565b6001905092915050565b6000610e6982611c5b565b9050919050565b610e80610e7b611a5c565b6118c7565b610ed5576040517f08c379a00000000000000000000000000000000000000000000000000000000081526004018080602001828103825260408152602001806139f96040913960400191505060405180910390fd5b610ede81611ca3565b50565b6000600254905090565b6000610efd610ef8611a5c565b611839565b610f52576040517f08c379a00000000000000000000000000000000000000000000000000000000081526004018080602001828103825260308152602001806139506030913960400191505060405180910390fd5b81610f5c856112eb565b1015610fd0576040517f08c379a000000000000000000000000000000000000000000000000000000000815260040180806020018281038252601c8152602001807f4e6f7420656e6f75676820617661696c61626c652062616c616e63650000000081525060200191505060405180910390fd5b610fdb848484611cfd565b600190509392505050565b610ff6610ff1611a5c565b6118c7565b61104b576040517f08c379a00000000000000000000000000000000000000000000000000000000081526004018080602001828103825260408152602001806139f96040913960400191505060405180910390fd5b61105481611fb3565b50565b6000600c60009054906101000a900460ff16905090565b600061111761107b611a5c565b84611112856001600061108c611a5c565b73ffffffffffffffffffffffffffffffffffffffff1673ffffffffffffffffffffffffffffffffffffffff16815260200190815260200160002060008973ffffffffffffffffffffffffffffffffffffffff1673ffffffffffffffffffffffffffffffffffffffff1681526020019081526020016000205461200d90919063ffffffff16565b611a64565b6001905092915050565b600061113782600661209590919063ffffffff16565b9050919050565b600061115061114b611a5c565b611839565b6111a5576040517f08c379a00000000000000000000000000000000000000000000000000000000081526004018080602001828103825260308152602001806139506030913960400191505060405180910390fd5b6111ae83611121565b611220576040517f08c379a00000000000000000000000000000000000000000000000000000000081526004018080602001828103825260198152602001807f4163636f756e742069736e27742077686974656c69737465640000000000000081525060200191505060405180910390fd5b61122a8383612173565b6001905092915050565b61124461123f611a5c565b61232e565b565b611256611251611a5c565b612388565b565b600061126a611265611a5c565b61192d565b6112bf576040517f08c379a00000000000000000000000000000000000000000000000000000000081526004018080602001828103825260308152602001806139206030913960400191505060405180910390fd5b6112c8846123e2565b6112d686338787878761246b565b905095945050505050565b6000600954905090565b6000611347600860008473ffffffffffffffffffffffffffffffffffffffff1673ffffffffffffffffffffffffffffffffffffffff1681526020019081526020016000205461133984611c5b565b612a1290919063ffffffff16565b9050919050565b61135e611359611a5c565b6118c7565b6113b3576040517f08c379a00000000000000000000000000000000000000000000000000000000081526004018080602001828103825260408152602001806139f96040913960400191505060405180910390fd5b6113bc81612a5c565b50565b60006113d16113cc611a5c565b61192d565b611426576040517f08c379a00000000000000000000000000000000000000000000000000000000081526004018080602001828103825260308152602001806139206030913960400191505060405180910390fd5b60006007600061143585612ab6565b8152602001908152602001600020905061144f8184612b4b565b915050919050565b6060600b8054600181600116156101000203166002900480601f0160208091040260200160405190810160405280929190818152602001828054600181600116156101000203166002900480156114ef5780601f106114c4576101008083540402835291602001916114ef565b820191906000526020600020905b8154815290600101906020018083116114d257829003601f168201915b5050505050905090565b611509611504611a5c565b611839565b61155e576040517f08c379a00000000000000000000000000000000000000000000000000000000081526004018080602001828103825260308152602001806139506030913960400191505060405180910390fd5b61156781612f8c565b50565b61157a611575611a5c565b612fe6565b565b600061158e611589611a5c565b611839565b6115e3576040517f08c379a00000000000000000000000000000000000000000000000000000000081526004018080602001828103825260308152602001806139506030913960400191505060405180910390fd5b816115ed846112eb565b1015611661576040517f08c379a000000000000000000000000000000000000000000000000000000000815260040180806020018281038252601c8152602001807f4e6f7420656e6f75676820617661696c61626c652062616c616e63650000000081525060200191505060405180910390fd5b61166b8383613040565b6001905092915050565b6000611738611682611a5c565b8461173385604051806060016040528060258152602001613b0c60259139600160006116ac611a5c565b73ffffffffffffffffffffffffffffffffffffffff1673ffffffffffffffffffffffffffffffffffffffff16815260200190815260200160002060008a73ffffffffffffffffffffffffffffffffffffffff1673ffffffffffffffffffffffffffffffffffffffff168152602001908152602001600020546131f89092919063ffffffff16565b611a64565b6001905092915050565b600061175461174f611a5c565b611839565b6117a9576040517f08c379a00000000000000000000000000000000000000000000000000000000081526004018080602001828103825260308152602001806139506030913960400191505060405180910390fd5b816117b3336112eb565b1015611827576040517f08c379a000000000000000000000000000000000000000000000000000000000815260040180806020018281038252601c8152602001807f4e6f7420656e6f75676820617661696c61626c652062616c616e63650000000081525060200191505060405180910390fd5b61183183836132b8565b905092915050565b600061184f82600361209590919063ffffffff16565b9050919050565b611866611861611a5c565b61192d565b6118bb576040517f08c379a00000000000000000000000000000000000000000000000000000000081526004018080602001828103825260308152602001806139206030913960400191505060405180910390fd5b6118c4816132d6565b50565b60006118dd82600561209590919063ffffffff16565b9050919050565b6000600860008373ffffffffffffffffffffffffffffffffffffffff1673ffffffffffffffffffffffffffffffffffffffff168152602001908152602001600020549050919050565b600061194382600461209590919063ffffffff16565b9050919050565b61195a611955611a5c565b611fb3565b565b600061196e611969611a5c565b61192d565b6119c3576040517f08c379a00000000000000000000000000000000000000000000000000000000081526004018080602001828103825260308152602001806139206030913960400191505060405180910390fd5b6119cd8383613330565b905092915050565b6000600160008473ffffffffffffffffffffffffffffffffffffffff1673ffffffffffffffffffffffffffffffffffffffff16815260200190815260200160002060008373ffffffffffffffffffffffffffffffffffffffff1673ffffffffffffffffffffffffffffffffffffffff16815260200190815260200160002054905092915050565b600033905090565b600073ffffffffffffffffffffffffffffffffffffffff168373ffffffffffffffffffffffffffffffffffffffff161415611aea576040517f08c379a0000000000000000000000000000000000000000000000000000000008152600401808060200182810382526024815260200180613ac16024913960400191505060405180910390fd5b600073ffffffffffffffffffffffffffffffffffffffff168273ffffffffffffffffffffffffffffffffffffffff161415611b70576040517f08c379a00000000000000000000000000000000000000000000000000000000081526004018080602001828103825260228152602001806138586022913960400191505060405180910390fd5b80600160008573ffffffffffffffffffffffffffffffffffffffff1673ffffffffffffffffffffffffffffffffffffffff16815260200190815260200160002060008473ffffffffffffffffffffffffffffffffffffffff1673ffffffffffffffffffffffffffffffffffffffff168152602001908152602001600020819055508173ffffffffffffffffffffffffffffffffffffffff168373ffffffffffffffffffffffffffffffffffffffff167f8c5be1e5ebec7d5bd14f71427d1e84f3dd0314c0f7b2291e5b200ac8c7c3b925836040518082815260200191505060405180910390a3505050565b60008060008373ffffffffffffffffffffffffffffffffffffffff1673ffffffffffffffffffffffffffffffffffffffff168152602001908152602001600020549050919050565b611cb781600661362b90919063ffffffff16565b8073ffffffffffffffffffffffffffffffffffffffff167fee1504a83b6d4a361f4c1dc78ab59bfa30d6a3b6612c403e86bb01ef2984295f60405160405180910390a250565b600073ffffffffffffffffffffffffffffffffffffffff168373ffffffffffffffffffffffffffffffffffffffff161415611d83576040517f08c379a0000000000000000000000000000000000000000000000000000000008152600401808060200182810382526025815260200180613a9c6025913960400191505060405180910390fd5b600073ffffffffffffffffffffffffffffffffffffffff168273ffffffffffffffffffffffffffffffffffffffff161415611e09576040517f08c379a00000000000000000000000000000000000000000000000000000000081526004018080602001828103825260238152602001806137d16023913960400191505060405180910390fd5b611e74816040518060600160405280602681526020016138a7602691396000808773ffffffffffffffffffffffffffffffffffffffff1673ffffffffffffffffffffffffffffffffffffffff168152602001908152602001600020546131f89092919063ffffffff16565b6000808573ffffffffffffffffffffffffffffffffffffffff1673ffffffffffffffffffffffffffffffffffffffff16815260200190815260200160002081905550611f07816000808573ffffffffffffffffffffffffffffffffffffffff1673ffffffffffffffffffffffffffffffffffffffff1681526020019081526020016000205461200d90919063ffffffff16565b6000808473ffffffffffffffffffffffffffffffffffffffff1673ffffffffffffffffffffffffffffffffffffffff168152602001908152602001600020819055508173ffffffffffffffffffffffffffffffffffffffff168373ffffffffffffffffffffffffffffffffffffffff167fddf252ad1be2c89b69c2b068fc378daa952ba7f163c4a11628f55a4df523b3ef836040518082815260200191505060405180910390a3505050565b611fc781600661370690919063ffffffff16565b8073ffffffffffffffffffffffffffffffffffffffff167f270d9b30cf5b0793bbfd54c9d5b94aeb49462b8148399000265144a8722da6b660405160405180910390a250565b60008082840190508381101561208b576040517f08c379a000000000000000000000000000000000000000000000000000000000815260040180806020018281038252601b8152602001807f536166654d6174683a206164646974696f6e206f766572666c6f77000000000081525060200191505060405180910390fd5b8091505092915050565b60008073ffffffffffffffffffffffffffffffffffffffff168273ffffffffffffffffffffffffffffffffffffffff16141561211c576040517f08c379a00000000000000000000000000000000000000000000000000000000081526004018080602001828103825260228152602001806139d76022913960400191505060405180910390fd5b8260000160008373ffffffffffffffffffffffffffffffffffffffff1673ffffffffffffffffffffffffffffffffffffffff16815260200190815260200160002060009054906101000a900460ff16905092915050565b600073ffffffffffffffffffffffffffffffffffffffff168273ffffffffffffffffffffffffffffffffffffffff161415612216576040517f08c379a000000000000000000000000000000000000000000000000000000000815260040180806020018281038252601f8152602001807f45524332303a206d696e7420746f20746865207a65726f20616464726573730081525060200191505060405180910390fd5b61222b8160025461200d90919063ffffffff16565b600281905550612282816000808573ffffffffffffffffffffffffffffffffffffffff1673ffffffffffffffffffffffffffffffffffffffff1681526020019081526020016000205461200d90919063ffffffff16565b6000808473ffffffffffffffffffffffffffffffffffffffff1673ffffffffffffffffffffffffffffffffffffffff168152602001908152602001600020819055508173ffffffffffffffffffffffffffffffffffffffff16600073ffffffffffffffffffffffffffffffffffffffff167fddf252ad1be2c89b69c2b068fc378daa952ba7f163c4a11628f55a4df523b3ef836040518082815260200191505060405180910390a35050565b61234281600461370690919063ffffffff16565b8073ffffffffffffffffffffffffffffffffffffffff167fd9bc583d1445615d8b795b7374f03ff79efa83b6359a91331efd95e4cf023ab660405160405180910390a250565b61239c81600561370690919063ffffffff16565b8073ffffffffffffffffffffffffffffffffffffffff167f0a8eb35e5ca14b3d6f28e4abf2f128dbab231a58b56e89beb5d636115001e16560405160405180910390a250565b600073ffffffffffffffffffffffffffffffffffffffff168173ffffffffffffffffffffffffffffffffffffffff161415612468576040517f08c379a00000000000000000000000000000000000000000000000000000000081526004018080602001828103825260268152602001806138fa6026913960400191505060405180910390fd5b50565b6000806007600061247b8a612ab6565b81526020019081526020016000209050612494886137c3565b15612507576040517f08c379a000000000000000000000000000000000000000000000000000000000815260040180806020018281038252601e8152602001807f4f7065726174696f6e204944206d757374206e6f7420626520656d707479000081525060200191505060405180910390fd5b6000831161257d576040517f08c379a000000000000000000000000000000000000000000000000000000000815260040180806020018281038252601f8152602001807f56616c7565206d7573742062652067726561746572207468616e207a65726f0081525060200191505060405180910390fd5b60008160040154146125f7576040517f08c379a000000000000000000000000000000000000000000000000000000000815260040180806020018281038252601f8152602001807f54686973206f7065726174696f6e496420616c7265616479206578697374730081525060200191505060405180910390fd5b600073ffffffffffffffffffffffffffffffffffffffff168473ffffffffffffffffffffffffffffffffffffffff16141561267d576040517f08c379a0000000000000000000000000000000000000000000000000000000008152600401808060200182810382526027815260200180613ae56027913960400191505060405180910390fd5b612686866112eb565b8311156126de576040517f08c379a00000000000000000000000000000000000000000000000000000000081526004018080602001828103825260428152602001806137f46042913960600191505060405180910390fd5b868160000160006101000a81548173ffffffffffffffffffffffffffffffffffffffff021916908373ffffffffffffffffffffffffffffffffffffffff160217905550858160010160006101000a81548173ffffffffffffffffffffffffffffffffffffffff021916908373ffffffffffffffffffffffffffffffffffffffff160217905550848160020160006101000a81548173ffffffffffffffffffffffffffffffffffffffff021916908373ffffffffffffffffffffffffffffffffffffffff160217905550838160030160006101000a81548173ffffffffffffffffffffffffffffffffffffffff021916908373ffffffffffffffffffffffffffffffffffffffff16021790555082816004018190555060018160050160006101000a81548160ff0219169083600681111561281457fe5b021790555061286b83600860008973ffffffffffffffffffffffffffffffffffffffff1673ffffffffffffffffffffffffffffffffffffffff1681526020019081526020016000205461200d90919063ffffffff16565b600860008873ffffffffffffffffffffffffffffffffffffffff1673ffffffffffffffffffffffffffffffffffffffff168152602001908152602001600020819055506128c38360095461200d90919063ffffffff16565b6009819055508373ffffffffffffffffffffffffffffffffffffffff168773ffffffffffffffffffffffffffffffffffffffff167f09d3f8d99a07d312d362a2c8d673f53a741850895285925eb85adf2a983b34f18a89898860405180806020018573ffffffffffffffffffffffffffffffffffffffff1673ffffffffffffffffffffffffffffffffffffffff1681526020018473ffffffffffffffffffffffffffffffffffffffff1673ffffffffffffffffffffffffffffffffffffffff168152602001838152602001828103825286818151815260200191508051906020019080838360005b838110156129c65780820151818401526020810190506129ab565b50505050905090810190601f1680156129f35780820380516001836020036101000a031916815260200191505b509550505050505060405180910390a360019150509695505050505050565b6000612a5483836040518060400160405280601e81526020017f536166654d6174683a207375627472616374696f6e206f766572666c6f7700008152506131f8565b905092915050565b612a7081600561362b90919063ffffffff16565b8073ffffffffffffffffffffffffffffffffffffffff167f22380c05984257a1cb900161c713dd71d39e74820f1aea43bd3f1bdd2096129960405160405180910390a250565b6000816040516020018080602001828103825283818151815260200191508051906020019080838360005b83811015612afc578082015181840152602081019050612ae1565b50505050905090810190601f168015612b295780820380516001836020036101000a031916815260200191505b5092505050604051602081830303815290604052805190602001209050919050565b6000612b5d612b58611a5c565b61192d565b612bb2576040517f08c379a00000000000000000000000000000000000000000000000000000000081526004018080602001828103825260308152602001806139206030913960400191505060405180910390fd5b60016006811115612bbf57fe5b8360050160009054906101000a900460ff166006811115612bdc57fe5b14612c32576040517f08c379a000000000000000000000000000000000000000000000000000000000815260040180806020018281038252602d8152602001806138cd602d913960400191505060405180910390fd5b8260020160009054906101000a900473ffffffffffffffffffffffffffffffffffffffff1673ffffffffffffffffffffffffffffffffffffffff163373ffffffffffffffffffffffffffffffffffffffff1614612cda576040517f08c379a0000000000000000000000000000000000000000000000000000000008152600401808060200182810382526042815260200180613a5a6042913960600191505060405180910390fd5b3373ffffffffffffffffffffffffffffffffffffffff168360030160009054906101000a900473ffffffffffffffffffffffffffffffffffffffff1673ffffffffffffffffffffffffffffffffffffffff161415612d5d5760048360050160006101000a81548160ff02191690836006811115612d5357fe5b0217905550612d84565b60058360050160006101000a81548160ff02191690836006811115612d7e57fe5b02179055505b612dfe8360040154600860008660010160009054906101000a900473ffffffffffffffffffffffffffffffffffffffff1673ffffffffffffffffffffffffffffffffffffffff1673ffffffffffffffffffffffffffffffffffffffff16815260200190815260200160002054612a1290919063ffffffff16565b600860008560010160009054906101000a900473ffffffffffffffffffffffffffffffffffffffff1673ffffffffffffffffffffffffffffffffffffffff1673ffffffffffffffffffffffffffffffffffffffff16815260200190815260200160002081905550612e7e8360040154600954612a1290919063ffffffff16565b6009819055508260000160009054906101000a900473ffffffffffffffffffffffffffffffffffffffff1673ffffffffffffffffffffffffffffffffffffffff167f4e48b247593fd0b3174316619f9274ea86db0ed03e691c2f8c4e0400e923375e838560050160009054906101000a900460ff166040518080602001836006811115612f0757fe5b60ff168152602001828103825284818151815260200191508051906020019080838360005b83811015612f47578082015181840152602081019050612f2c565b50505050905090810190601f168015612f745780820380516001836020036101000a031916815260200191505b50935050505060405180910390a26001905092915050565b612fa081600361362b90919063ffffffff16565b8073ffffffffffffffffffffffffffffffffffffffff167f6ae172837ea30b801fbfcdd4108aa1d5bf8ff775444fd70256b44e6bf3dfc3f660405160405180910390a250565b612ffa81600361370690919063ffffffff16565b8073ffffffffffffffffffffffffffffffffffffffff167fe94479a9f7e1952cc78f2d6baab678adc1b772d936c6583def489e524cb6669260405160405180910390a250565b600073ffffffffffffffffffffffffffffffffffffffff168273ffffffffffffffffffffffffffffffffffffffff1614156130c6576040517f08c379a0000000000000000000000000000000000000000000000000000000008152600401808060200182810382526021815260200180613a396021913960400191505060405180910390fd5b61313181604051806060016040528060228152602001613836602291396000808673ffffffffffffffffffffffffffffffffffffffff1673ffffffffffffffffffffffffffffffffffffffff168152602001908152602001600020546131f89092919063ffffffff16565b6000808473ffffffffffffffffffffffffffffffffffffffff1673ffffffffffffffffffffffffffffffffffffffff1681526020019081526020016000208190555061318881600254612a1290919063ffffffff16565b600281905550600073ffffffffffffffffffffffffffffffffffffffff168273ffffffffffffffffffffffffffffffffffffffff167fddf252ad1be2c89b69c2b068fc378daa952ba7f163c4a11628f55a4df523b3ef836040518082815260200191505060405180910390a35050565b60008383111582906132a5576040517f08c379a00000000000000000000000000000000000000000000000000000000081526004018080602001828103825283818151815260200191508051906020019080838360005b8381101561326a57808201518184015260208101905061324f565b50505050905090810190601f1680156132975780820380516001836020036101000a031916815260200191505b509250505060405180910390fd5b5060008385039050809150509392505050565b60006132cc6132c5611a5c565b8484611cfd565b6001905092915050565b6132ea81600461362b90919063ffffffff16565b8073ffffffffffffffffffffffffffffffffffffffff167f9894d458cf29e8bc4eb7e591bac54b31dc90125dfa852474419972ab4347dd1260405160405180910390a250565b6000806007600061334086612ab6565b815260200190815260200160002090506001600681111561335d57fe5b8160050160009054906101000a900460ff16600681111561337a57fe5b146133d0576040517f08c379a000000000000000000000000000000000000000000000000000000000815260040180806020018281038252602d81526020018061387a602d913960400191505060405180910390fd5b60008311613446576040517f08c379a000000000000000000000000000000000000000000000000000000000815260040180806020018281038252601f8152602001807f56616c7565206d7573742062652067726561746572207468616e207a65726f0081525060200191505060405180910390fd5b80600401548311156134a3576040517f08c379a00000000000000000000000000000000000000000000000000000000081526004018080602001828103825260368152602001806139a16036913960400191505060405180910390fd5b61351d8160040154600860008460010160009054906101000a900473ffffffffffffffffffffffffffffffffffffffff1673ffffffffffffffffffffffffffffffffffffffff1673ffffffffffffffffffffffffffffffffffffffff16815260200190815260200160002054612a1290919063ffffffff16565b600860008360010160009054906101000a900473ffffffffffffffffffffffffffffffffffffffff1673ffffffffffffffffffffffffffffffffffffffff1673ffffffffffffffffffffffffffffffffffffffff1681526020019081526020016000208190555061359d8160040154600954612a1290919063ffffffff16565b6009819055506135fa8160010160009054906101000a900473ffffffffffffffffffffffffffffffffffffffff168260030160009054906101000a900473ffffffffffffffffffffffffffffffffffffffff168360040154611cfd565b60028160050160006101000a81548160ff0219169083600681111561361b57fe5b0217905550600191505092915050565b6136358282612095565b156136a8576040517f08c379a000000000000000000000000000000000000000000000000000000000815260040180806020018281038252601f8152602001807f526f6c65733a206163636f756e7420616c72656164792068617320726f6c650081525060200191505060405180910390fd5b60018260000160008373ffffffffffffffffffffffffffffffffffffffff1673ffffffffffffffffffffffffffffffffffffffff16815260200190815260200160002060006101000a81548160ff0219169083151502179055505050565b6137108282612095565b613765576040517f08c379a00000000000000000000000000000000000000000000000000000000081526004018080602001828103825260218152602001806139806021913960400191505060405180910390fd5b60008260000160008373ffffffffffffffffffffffffffffffffffffffff1673ffffffffffffffffffffffffffffffffffffffff16815260200190815260200160002060006101000a81548160ff0219169083151502179055505050565b600080825114905091905056fe45524332303a207472616e7366657220746f20746865207a65726f2061646472657373416d6f756e74206f662074686520686f6c642063616e27742062652067726561746572207468616e207468652062616c616e6365206f6620746865206f726967696e45524332303a206275726e20616d6f756e7420657863656564732062616c616e636545524332303a20617070726f766520746f20746865207a65726f20616464726573734120686f6c642063616e206f6e6c7920626520657865637574656420696e20737461747573204f72646572656445524332303a207472616e7366657220616d6f756e7420657863656564732062616c616e63654120686f6c642063616e206f6e6c792062652072656c656173656420696e20737461747573204f72646572656450617965652061646472657373206d757374206e6f74206265207a65726f2061646472657373486f6c646572526f6c653a2063616c6c657220646f6573206e6f7420686176652074686520486f6c64657220726f6c654d696e746572526f6c653a2063616c6c657220646f6573206e6f74206861766520746865204d696e74657220726f6c65526f6c65733a206163636f756e7420646f6573206e6f74206861766520726f6c655468652076616c75652073686f756c6420626520657175616c206f72206c657373207468616e207468652068656c6420616d6f756e74526f6c65733a206163636f756e7420697320746865207a65726f206164647265737357686974656c69737441646d696e526f6c653a2063616c6c657220646f6573206e6f742068617665207468652057686974656c69737441646d696e20726f6c6545524332303a206275726e2066726f6d20746865207a65726f206164647265737341206e6f74206578706972656420686f6c642063616e206f6e6c792062652072656c656173656420627920746865206e6f74617279206f722074686520706179656545524332303a207472616e736665722066726f6d20746865207a65726f206164647265737345524332303a20617070726f76652066726f6d20746865207a65726f20616464726573734e6f746172792061646472657373206d757374206e6f74206265207a65726f206164647265737345524332303a2064656372656173656420616c6c6f77616e63652062656c6f77207a65726fa265627a7a723158201286f5a41125fa60a9e2dd31f19da738ea863c1f0ee33b3b3e730db3cee5258d64736f6c63430005110032526f6c65733a206163636f756e7420697320746865207a65726f2061646472657373",
  "compiler": {
    "name": "solc",
    "version": "0.5.17+commit.d19bba13.Emscripten.clang",
    "optimizer": {
      "enabled": false,
      "runs": 200
    },
    "evmVersion": "petersburg"
  }
}