{
  "contractName": "CrossBoarderPayment",
  "abi": [
    {
      "inputs": [
        {
          "internalType": "contract EmoneyTokenDollar",
          "name": "_eDollars",
          "type": "address"
        },
        {
          "internalType": "contract EmoneyTokenPeso",
          "name": "_ePesos",
          "type": "address"
        },
        {
          "internalType": "address",
          "name": "_feeAgent",
          "type": "address"
        }
      ],
      "payable": false,
      "stateMutability": "nonpayable",
      "type": "constructor"
    },
    {
      "anonymous": false,
      "inputs": [
        {
          "indexed": true,
          "internalType": "string",
          "name": "operationId",
          "type": "string"
        },
        {
          "indexed": true,
          "internalType": "address",
          "name": "operator",
          "type": "address"
        },
        {
          "indexed": false,
          "internalType": "uint256",
          "name": "fee",
          "type": "uint256"
        },
        {
          "indexed": false,
          "internalType": "uint256",
          "name": "tasa",
          "type": "uint256"
        }
      ],
      "name": "FeeTasaSeted",
      "type": "event"
    },
    {
      "anonymous": false,
      "inputs": [
        {
          "indexed": true,
          "internalType": "address",
          "name": "orderer",
          "type": "address"
        },
        {
          "indexed": false,
          "internalType": "string",
          "name": "operationId",
          "type": "string"
        }
      ],
      "name": "TransferCancelled",
      "type": "event"
    },
    {
      "anonymous": false,
      "inputs": [
        {
          "indexed": true,
          "internalType": "address",
          "name": "orderer",
          "type": "address"
        },
        {
          "indexed": false,
          "internalType": "string",
          "name": "operationId",
          "type": "string"
        }
      ],
      "name": "TransferExecuted",
      "type": "event"
    },
    {
      "anonymous": false,
      "inputs": [
        {
          "indexed": true,
          "internalType": "address",
          "name": "orderer",
          "type": "address"
        },
        {
          "indexed": false,
          "internalType": "string",
          "name": "operationId",
          "type": "string"
        }
      ],
      "name": "TransferFundsInSuspense",
      "type": "event"
    },
    {
      "anonymous": false,
      "inputs": [
        {
          "indexed": true,
          "internalType": "address",
          "name": "orderer",
          "type": "address"
        },
        {
          "indexed": false,
          "internalType": "string",
          "name": "operationId",
          "type": "string"
        }
      ],
      "name": "TransferInProcess",
      "type": "event"
    },
    {
      "anonymous": false,
      "inputs": [
        {
          "indexed": true,
          "internalType": "address",
          "name": "orderer",
          "type": "address"
        },
        {
          "indexed": false,
          "internalType": "string",
          "name": "operationId",
          "type": "string"
        },
        {
          "indexed": true,
          "internalType": "address",
          "name": "to",
          "type": "address"
        },
        {
          "indexed": true,
          "internalType": "address",
          "name": "operator",
          "type": "address"
        },
        {
          "indexed": false,
          "internalType": "uint256",
          "name": "value",
          "type": "uint256"
        }
      ],
      "name": "TransferOrdered",
      "type": "event"
    },
    {
      "anonymous": false,
      "inputs": [
        {
          "indexed": true,
          "internalType": "address",
          "name": "orderer",
          "type": "address"
        },
        {
          "indexed": false,
          "internalType": "string",
          "name": "operationId",
          "type": "string"
        },
        {
          "indexed": false,
          "internalType": "string",
          "name": "reason",
          "type": "string"
        }
      ],
      "name": "TransferRejected",
      "type": "event"
    },
    {
      "constant": true,
      "inputs": [],
      "name": "feeAgent",
      "outputs": [
        {
          "internalType": "address",
          "name": "",
          "type": "address"
        }
      ],
      "payable": false,
      "stateMutability": "view",
      "type": "function"
    },
    {
      "constant": true,
      "inputs": [],
      "name": "transferAgent",
      "outputs": [
        {
          "internalType": "address",
          "name": "",
          "type": "address"
        }
      ],
      "payable": false,
      "stateMutability": "view",
      "type": "function"
    },
    {
      "constant": false,
      "inputs": [
        {
          "internalType": "string",
          "name": "operationId",
          "type": "string"
        },
        {
          "internalType": "address",
          "name": "to",
          "type": "address"
        },
        {
          "internalType": "address",
          "name": "operator",
          "type": "address"
        },
        {
          "internalType": "uint256",
          "name": "value",
          "type": "uint256"
        }
      ],
      "name": "orderTransfer",
      "outputs": [
        {
          "internalType": "bool",
          "name": "",
          "type": "bool"
        }
      ],
      "payable": false,
      "stateMutability": "nonpayable",
      "type": "function"
    },
    {
      "constant": false,
      "inputs": [
        {
          "internalType": "string",
          "name": "operationId",
          "type": "string"
        },
        {
          "internalType": "uint256",
          "name": "fee",
          "type": "uint256"
        },
        {
          "internalType": "uint256",
          "name": "tasa",
          "type": "uint256"
        }
      ],
      "name": "setFeeTasa",
      "outputs": [
        {
          "internalType": "bool",
          "name": "",
          "type": "bool"
        }
      ],
      "payable": false,
      "stateMutability": "nonpayable",
      "type": "function"
    },
    {
      "constant": false,
      "inputs": [
        {
          "internalType": "string",
          "name": "operationId",
          "type": "string"
        }
      ],
      "name": "cancelTransfer",
      "outputs": [
        {
          "internalType": "bool",
          "name": "",
          "type": "bool"
        }
      ],
      "payable": false,
      "stateMutability": "nonpayable",
      "type": "function"
    },
    {
      "constant": false,
      "inputs": [
        {
          "internalType": "string",
          "name": "operationId",
          "type": "string"
        }
      ],
      "name": "processTransfer",
      "outputs": [
        {
          "internalType": "bool",
          "name": "",
          "type": "bool"
        }
      ],
      "payable": false,
      "stateMutability": "nonpayable",
      "type": "function"
    },
    {
      "constant": false,
      "inputs": [
        {
          "internalType": "string",
          "name": "operationId",
          "type": "string"
        }
      ],
      "name": "executeTransfer",
      "outputs": [
        {
          "internalType": "bool",
          "name": "",
          "type": "bool"
        }
      ],
      "payable": false,
      "stateMutability": "nonpayable",
      "type": "function"
    },
    {
      "constant": true,
      "inputs": [
        {
          "internalType": "string",
          "name": "operationId",
          "type": "string"
        }
      ],
      "name": "retrieveTransferData",
      "outputs": [
        {
          "internalType": "address",
          "name": "origin",
          "type": "address"
        },
        {
          "internalType": "address",
          "name": "to",
          "type": "address"
        },
        {
          "internalType": "address",
          "name": "operator",
          "type": "address"
        },
        {
          "internalType": "uint256",
          "name": "value",
          "type": "uint256"
        },
        {
          "internalType": "uint256",
          "name": "fee",
          "type": "uint256"
        },
        {
          "internalType": "uint256",
          "name": "tasa",
          "type": "uint256"
        },
        {
          "internalType": "enum ICrossBoarderPayment.TransferStatusCode",
          "name": "status",
          "type": "uint8"
        }
      ],
      "payable": false,
      "stateMutability": "view",
      "type": "function"
    }
  ],
  "bytecode": "0x608060405234801561001057600080fd5b5060405162002775380380620027758339818101604052606081101561003557600080fd5b81019080805190602001909291908051906020019092919080519060200190929190505050600073ffffffffffffffffffffffffffffffffffffffff168373ffffffffffffffffffffffffffffffffffffffff1614156100e1576040517f08c379a000000000000000000000000000000000000000000000000000000000815260040180806020018281038252602e8152602001806200271b602e913960400191505060405180910390fd5b600073ffffffffffffffffffffffffffffffffffffffff168273ffffffffffffffffffffffffffffffffffffffff161415610168576040517f08c379a000000000000000000000000000000000000000000000000000000000815260040180806020018281038252602c81526020018062002749602c913960400191505060405180910390fd5b826000806101000a81548173ffffffffffffffffffffffffffffffffffffffff021916908373ffffffffffffffffffffffffffffffffffffffff16021790555081600160006101000a81548173ffffffffffffffffffffffffffffffffffffffff021916908373ffffffffffffffffffffffffffffffffffffffff16021790555033600360006101000a81548173ffffffffffffffffffffffffffffffffffffffff021916908373ffffffffffffffffffffffffffffffffffffffff16021790555080600460006101000a81548173ffffffffffffffffffffffffffffffffffffffff021916908373ffffffffffffffffffffffffffffffffffffffff16021790555050505061249d806200027e6000396000f3fe608060405234801561001057600080fd5b50600436106100885760003560e01c8063b0aefc841161005b578063b0aefc84146102d4578063b6ab3bc914610365578063e1c2df34146103af578063f325b041146104f857610088565b80631c0fe26d1461008d5780633d850bb414610168578063760cd8e1146101f957806394e0b06214610243575b600080fd5b61014e600480360360808110156100a357600080fd5b81019080803590602001906401000000008111156100c057600080fd5b8201836020820111156100d257600080fd5b803590602001918460018302840111640100000000831117156100f457600080fd5b9091929391929390803573ffffffffffffffffffffffffffffffffffffffff169060200190929190803573ffffffffffffffffffffffffffffffffffffffff1690602001909291908035906020019092919050505061059d565b604051808215151515815260200191505060405180910390f35b6101df6004803603602081101561017e57600080fd5b810190808035906020019064010000000081111561019b57600080fd5b8201836020820111156101ad57600080fd5b803590602001918460018302840111640100000000831117156101cf57600080fd5b90919293919293905050506106b4565b604051808215151515815260200191505060405180910390f35b6102016108fa565b604051808273ffffffffffffffffffffffffffffffffffffffff1673ffffffffffffffffffffffffffffffffffffffff16815260200191505060405180910390f35b6102ba6004803603602081101561025957600080fd5b810190808035906020019064010000000081111561027657600080fd5b82018360208201111561028857600080fd5b803590602001918460018302840111640100000000831117156102aa57600080fd5b9091929391929390505050610920565b604051808215151515815260200191505060405180910390f35b61034b600480360360208110156102ea57600080fd5b810190808035906020019064010000000081111561030757600080fd5b82018360208201111561031957600080fd5b8035906020019184600183028401116401000000008311171561033b57600080fd5b9091929391929390505050610a6e565b604051808215151515815260200191505060405180910390f35b61036d610e05565b604051808273ffffffffffffffffffffffffffffffffffffffff1673ffffffffffffffffffffffffffffffffffffffff16815260200191505060405180910390f35b610426600480360360208110156103c557600080fd5b81019080803590602001906401000000008111156103e257600080fd5b8201836020820111156103f457600080fd5b8035906020019184600183028401116401000000008311171561041657600080fd5b9091929391929390505050610e2b565b604051808873ffffffffffffffffffffffffffffffffffffffff1673ffffffffffffffffffffffffffffffffffffffff1681526020018773ffffffffffffffffffffffffffffffffffffffff1673ffffffffffffffffffffffffffffffffffffffff1681526020018673ffffffffffffffffffffffffffffffffffffffff1673ffffffffffffffffffffffffffffffffffffffff1681526020018581526020018481526020018381526020018260078111156104de57fe5b60ff16815260200197505050505050505060405180910390f35b6105836004803603606081101561050e57600080fd5b810190808035906020019064010000000081111561052b57600080fd5b82018360208201111561053d57600080fd5b8035906020019184600183028401116401000000008311171561055f57600080fd5b90919293919293908035906020019092919080359060200190929190505050610f49565b604051808215151515815260200191505060405180910390f35b60008273ffffffffffffffffffffffffffffffffffffffff168473ffffffffffffffffffffffffffffffffffffffff163373ffffffffffffffffffffffffffffffffffffffff167fc219f19cc20bf6ced3cb6ae6c3862d465a9893ea6c02e740d2c90852a366da2589898760405180806020018381526020018281038252858582818152602001925080828437600081840152601f19601f82011690508083019250505094505050505060405180910390a4610658846110bf565b6106a93387878080601f016020809104026020016040519081016040528093929190818152602001838380828437600081840152601f19601f82011690508083019250505050505050868686611148565b905095945050505050565b60008061070484848080601f016020809104026020016040519081016040528093929190818152602001838380828437600081840152601f19601f820116905080830192505050505050506118b8565b905060006002600083815260200190815260200160002090506000809054906101000a900473ffffffffffffffffffffffffffffffffffffffff1673ffffffffffffffffffffffffffffffffffffffff16638e232a0f86868460010160009054906101000a900473ffffffffffffffffffffffffffffffffffffffff168560020160009054906101000a900473ffffffffffffffffffffffffffffffffffffffff1633876004015460006040518863ffffffff1660e01b815260040180806020018773ffffffffffffffffffffffffffffffffffffffff1673ffffffffffffffffffffffffffffffffffffffff1681526020018673ffffffffffffffffffffffffffffffffffffffff1673ffffffffffffffffffffffffffffffffffffffff1681526020018573ffffffffffffffffffffffffffffffffffffffff1673ffffffffffffffffffffffffffffffffffffffff1681526020018481526020018381526020018281038252898982818152602001925080828437600081840152601f19601f82011690508083019250505098505050505050505050602060405180830381600087803b1580156108b657600080fd5b505af11580156108ca573d6000803e3d6000fd5b505050506040513d60208110156108e057600080fd5b810190808051906020019092919050505050505092915050565b600360009054906101000a900473ffffffffffffffffffffffffffffffffffffffff1681565b6000600360009054906101000a900473ffffffffffffffffffffffffffffffffffffffff1673ffffffffffffffffffffffffffffffffffffffff163373ffffffffffffffffffffffffffffffffffffffff16146109c8576040517f08c379a00000000000000000000000000000000000000000000000000000000081526004018080602001828103825260358152602001806122af6035913960400191505060405180910390fd5b610a1583838080601f016020809104026020016040519081016040528093929190818152602001838380828437600081840152601f19601f8201169050808301925050505050505061194d565b50610a6383838080601f016020809104026020016040519081016040528093929190818152602001838380828437600081840152601f19601f82011690508083019250505050505050611bb5565b506001905092915050565b600080610abe84848080601f016020809104026020016040519081016040528093929190818152602001838380828437600081840152601f19601f820116905080830192505050505050506118b8565b9050600060026000838152602001908152602001600020905060016007811115610ae457fe5b8160070160009054906101000a900460ff166007811115610b0157fe5b14610b57576040517f08c379a00000000000000000000000000000000000000000000000000000000081526004018080602001828103825260328152602001806123796032913960400191505060405180910390fd5b8060000160009054906101000a900473ffffffffffffffffffffffffffffffffffffffff1673ffffffffffffffffffffffffffffffffffffffff163373ffffffffffffffffffffffffffffffffffffffff161480610c0457508060010160009054906101000a900473ffffffffffffffffffffffffffffffffffffffff1673ffffffffffffffffffffffffffffffffffffffff163373ffffffffffffffffffffffffffffffffffffffff16145b610c59576040517f08c379a000000000000000000000000000000000000000000000000000000000815260040180806020018281038252604881526020018061230b6048913960600191505060405180910390fd5b6000809054906101000a900473ffffffffffffffffffffffffffffffffffffffff1673ffffffffffffffffffffffffffffffffffffffff16638e4a5a9286866040518363ffffffff1660e01b815260040180806020018281038252848482818152602001925080828437600081840152601f19601f8201169050808301925050509350505050602060405180830381600087803b158015610cf957600080fd5b505af1158015610d0d573d6000803e3d6000fd5b505050506040513d6020811015610d2357600080fd5b81019080805190602001909291905050505060078160070160006101000a81548160ff02191690836007811115610d5657fe5b02179055508060000160009054906101000a900473ffffffffffffffffffffffffffffffffffffffff1673ffffffffffffffffffffffffffffffffffffffff167ff8bdc32e3214bc0618f2e71323ca0f82d89f6057787a7defb55d4ed4cfa47cdf868660405180806020018281038252848482818152602001925080828437600081840152601f19601f820116905080830192505050935050505060405180910390a260019250505092915050565b600460009054906101000a900473ffffffffffffffffffffffffffffffffffffffff1681565b600080600080600080600080610e848a8a8080601f016020809104026020016040519081016040528093929190818152602001838380828437600081840152601f19601f820116905080830192505050505050506118b8565b905060006002600083815260200190815260200160002090508060010160009054906101000a900473ffffffffffffffffffffffffffffffffffffffff168160020160009054906101000a900473ffffffffffffffffffffffffffffffffffffffff168260030160009054906101000a900473ffffffffffffffffffffffffffffffffffffffff168360040154846005015485600601548660070160009054906101000a900460ff169850985098509850985098509850505092959891949750929550565b6000600460009054906101000a900473ffffffffffffffffffffffffffffffffffffffff1673ffffffffffffffffffffffffffffffffffffffff163373ffffffffffffffffffffffffffffffffffffffff1614610ff1576040517f08c379a000000000000000000000000000000000000000000000000000000000815260040180806020018281038252602d815260200180612413602d913960400191505060405180910390fd5b3373ffffffffffffffffffffffffffffffffffffffff16858560405180838380828437808301925050509250505060405180910390207f4225ceb9d97f005353112fa3b0dd473d957e2b1e4237aecee090612281fed2308585604051808381526020018281526020019250505060405180910390a36110b585858080601f016020809104026020016040519081016040528093929190818152602001838380828437600081840152601f19601f820116905080830192505050505050508484611fb8565b9050949350505050565b600073ffffffffffffffffffffffffffffffffffffffff168173ffffffffffffffffffffffffffffffffffffffff161415611145576040517f08c379a00000000000000000000000000000000000000000000000000000000081526004018080602001828103825260268152602001806123536026913960400191505060405180910390fd5b50565b60008060026000611158886118b8565b8152602001908152602001600020905060008160040154146111e2576040517f08c379a000000000000000000000000000000000000000000000000000000000815260040180806020018281038252601f8152602001807f54686973206f7065726174696f6e496420616c7265616479206578697374730081525060200191505060405180910390fd5b600073ffffffffffffffffffffffffffffffffffffffff168473ffffffffffffffffffffffffffffffffffffffff161415611268576040517f08c379a00000000000000000000000000000000000000000000000000000000081526004018080602001828103825260298152602001806124406029913960400191505060405180910390fd5b600083116112de576040517f08c379a000000000000000000000000000000000000000000000000000000000815260040180806020018281038252601f8152602001807f56616c7565206d7573742062652067726561746572207468616e207a65726f0081525060200191505060405180910390fd5b826000809054906101000a900473ffffffffffffffffffffffffffffffffffffffff1673ffffffffffffffffffffffffffffffffffffffff166370a08231896040518263ffffffff1660e01b8152600401808273ffffffffffffffffffffffffffffffffffffffff1673ffffffffffffffffffffffffffffffffffffffff16815260200191505060206040518083038186803b15801561137d57600080fd5b505afa158015611391573d6000803e3d6000fd5b505050506040513d60208110156113a757600080fd5b81019080805190602001909291905050501161140e576040517f08c379a00000000000000000000000000000000000000000000000000000000081526004018080602001828103825260278152602001806122e46027913960400191505060405180910390fd5b600160009054906101000a900473ffffffffffffffffffffffffffffffffffffffff1673ffffffffffffffffffffffffffffffffffffffff16633af32abf866040518263ffffffff1660e01b8152600401808273ffffffffffffffffffffffffffffffffffffffff1673ffffffffffffffffffffffffffffffffffffffff16815260200191505060206040518083038186803b1580156114ad57600080fd5b505afa1580156114c1573d6000803e3d6000fd5b505050506040513d60208110156114d757600080fd5b810190808051906020019092919050505061153d576040517f08c379a000000000000000000000000000000000000000000000000000000000815260040180806020018281038252602581526020018061228a6025913960400191505060405180910390fd5b338160000160006101000a81548173ffffffffffffffffffffffffffffffffffffffff021916908373ffffffffffffffffffffffffffffffffffffffff160217905550868160010160006101000a81548173ffffffffffffffffffffffffffffffffffffffff021916908373ffffffffffffffffffffffffffffffffffffffff160217905550848160020160006101000a81548173ffffffffffffffffffffffffffffffffffffffff021916908373ffffffffffffffffffffffffffffffffffffffff160217905550838160030160006101000a81548173ffffffffffffffffffffffffffffffffffffffff021916908373ffffffffffffffffffffffffffffffffffffffff16021790555082816004018190555060018160070160006101000a81548160ff0219169083600781111561167357fe5b02179055506000809054906101000a900473ffffffffffffffffffffffffffffffffffffffff1673ffffffffffffffffffffffffffffffffffffffff16638e232a0f878360010160009054906101000a900473ffffffffffffffffffffffffffffffffffffffff168460020160009054906101000a900473ffffffffffffffffffffffffffffffffffffffff168560030160009054906101000a900473ffffffffffffffffffffffffffffffffffffffff16866004015460006040518763ffffffff1660e01b815260040180806020018773ffffffffffffffffffffffffffffffffffffffff1673ffffffffffffffffffffffffffffffffffffffff1681526020018673ffffffffffffffffffffffffffffffffffffffff1673ffffffffffffffffffffffffffffffffffffffff1681526020018573ffffffffffffffffffffffffffffffffffffffff1673ffffffffffffffffffffffffffffffffffffffff168152602001848152602001838152602001828103825288818151815260200191508051906020019080838360005b8381101561181d578082015181840152602081019050611802565b50505050905090810190601f16801561184a5780820380516001836020036101000a031916815260200191505b50975050505050505050602060405180830381600087803b15801561186e57600080fd5b505af1158015611882573d6000803e3d6000fd5b505050506040513d602081101561189857600080fd5b810190808051906020019092919050505050600191505095945050505050565b6000816040516020018080602001828103825283818151815260200191508051906020019080838360005b838110156118fe5780820151818401526020810190506118e3565b50505050905090810190601f16801561192b5780820380516001836020036101000a031916815260200191505b5092505050604051602081830303815290604052805190602001209050919050565b6000806002600061195d856118b8565b815260200190815260200160002090506000816004015414156119e8576040517f08c379a000000000000000000000000000000000000000000000000000000000815260040180806020018281038252601e8152602001807f54686973206f7065726174696f6e496420646f65736e2774206578697374000081525060200191505060405180910390fd5b600260078111156119f557fe5b8160070160009054906101000a900460ff166007811115611a1257fe5b14611a68576040517f08c379a00000000000000000000000000000000000000000000000000000000081526004018080602001828103825260328152602001806123e16032913960400191505060405180910390fd5b6000809054906101000a900473ffffffffffffffffffffffffffffffffffffffff1673ffffffffffffffffffffffffffffffffffffffff1663da7d3d048483600401546040518363ffffffff1660e01b81526004018080602001838152602001828103825284818151815260200191508051906020019080838360005b83811015611b00578082015181840152602081019050611ae5565b50505050905090810190601f168015611b2d5780820380516001836020036101000a031916815260200191505b509350505050602060405180830381600087803b158015611b4d57600080fd5b505af1158015611b61573d6000803e3d6000fd5b505050506040513d6020811015611b7757600080fd5b81019080805190602001909291905050505060038160070160006101000a81548160ff02191690836007811115611baa57fe5b021790555050919050565b60008060026000611bc5856118b8565b81526020019081526020016000209050600081600401541415611c50576040517f08c379a000000000000000000000000000000000000000000000000000000000815260040180806020018281038252601e8152602001807f54686973206f7065726174696f6e496420646f65736e2774206578697374000081525060200191505060405180910390fd5b60036007811115611c5d57fe5b8160070160009054906101000a900460ff166007811115611c7a57fe5b14611cd0576040517f08c379a00000000000000000000000000000000000000000000000000000000081526004018080602001828103825260368152602001806123ab6036913960400191505060405180910390fd5b600160009054906101000a900473ffffffffffffffffffffffffffffffffffffffff1673ffffffffffffffffffffffffffffffffffffffff166340c10f198260020160009054906101000a900473ffffffffffffffffffffffffffffffffffffffff16611d4e8460050154856004015461217f90919063ffffffff16565b6040518363ffffffff1660e01b8152600401808373ffffffffffffffffffffffffffffffffffffffff1673ffffffffffffffffffffffffffffffffffffffff16815260200182815260200192505050602060405180830381600087803b158015611db757600080fd5b505af1158015611dcb573d6000803e3d6000fd5b505050506040513d6020811015611de157600080fd5b8101908080519060200190929190505050506000809054906101000a900473ffffffffffffffffffffffffffffffffffffffff1673ffffffffffffffffffffffffffffffffffffffff166340c10f198260030160009054906101000a900473ffffffffffffffffffffffffffffffffffffffff1683600501546040518363ffffffff1660e01b8152600401808373ffffffffffffffffffffffffffffffffffffffff1673ffffffffffffffffffffffffffffffffffffffff16815260200182815260200192505050602060405180830381600087803b158015611ec357600080fd5b505af1158015611ed7573d6000803e3d6000fd5b505050506040513d6020811015611eed57600080fd5b8101908080519060200190929190505050503373ffffffffffffffffffffffffffffffffffffffff167f3ab04c4b61dfe99d86c9fc866f66c8fbdb378b8b5f05dc4954dd56e31fd76446846040518080602001828103825283818151815260200191508051906020019080838360005b83811015611f78578082015181840152602081019050611f5d565b50505050905090810190601f168015611fa55780820380516001836020036101000a031916815260200191505b509250505060405180910390a250919050565b60008060026000611fc8876118b8565b81526020019081526020016000209050600081600401541415612053576040517f08c379a000000000000000000000000000000000000000000000000000000000815260040180806020018281038252601e8152602001807f54686973206f7065726174696f6e496420646f65736e2774206578697374000081525060200191505060405180910390fd5b600084116120c9576040517f08c379a000000000000000000000000000000000000000000000000000000000815260040180806020018281038252601d8152602001807f466565206d7573742062652067726561746572207468616e207a65726f00000081525060200191505060405180910390fd5b6000831161213f576040517f08c379a000000000000000000000000000000000000000000000000000000000815260040180806020018281038252601d8152602001807f466565206d7573742062652067726561746572207468616e207a65726f00000081525060200191505060405180910390fd5b83816005018190555082816006018190555060028160070160006101000a81548160ff0219169083600781111561217257fe5b0217905550509392505050565b60006121c183836040518060400160405280601e81526020017f536166654d6174683a207375627472616374696f6e206f766572666c6f7700008152506121c9565b905092915050565b6000838311158290612276576040517f08c379a00000000000000000000000000000000000000000000000000000000081526004018080602001828103825283818151815260200191508051906020019080838360005b8381101561223b578082015181840152602081019050612220565b50505050905090810190601f1680156122685780820380516001836020036101000a031916815260200191505b509250505060405180910390fd5b506000838503905080915050939250505056fe44657374696e6174696f6e204163636f756e742069736e27742077686974656c697374656441207472616e736665722063616e206f6e6c7920626520657865637574656420627920746865207472616e73666572206167656e744163636f756e7420646f65736e2774206861766520666f756e647320746f207472616e7366657241207472616e736665722063616e206f6e6c792062652063616e63656c6c656420627920746865206f726465726572206f72207468652077616c6c6574546f4265506169644f757450617965652061646472657373206d757374206e6f74206265207a65726f206164647265737341207472616e736665722063616e206f6e6c792062652063616e63656c6c656420696e20737461747573204f72646572656441207472616e736665722063616e206f6e6c792062652065786563757465642066726f6d2073746174757320486f6c644275726e656441207472616e736665722063616e206f6e6c792062652065786563757465642066726f6d2073746174757320466565536574536574206665652063616e206f6e6c792062652065786563757465642062792074686520666565206167656e744f70657261746f722061646472657373206d757374206e6f74206265207a65726f2061646472657373a265627a7a72315820e294306d2626391e31e842c64559b10bf1ea90f264d4d67372c6bbe4403e19a664736f6c634300050c003245446f6c6c61727320546f6b656e20616464726573732063616e206e6f74206265207a65726f2061646472657373455065736f7320546f6b656e20616464726573732063616e206e6f74206265207a65726f2061646472657373",
  "source": "pragma solidity ^0.5.0;\n\nimport \"./eMoneyToken/EmoneyTokenDollar.sol\";\nimport \"./eMoneyToken/EmoneyTokenPeso.sol\";\nimport \"./ICrossBoarderPayment.sol\";\nimport \"./libraries/StringUtil.sol\";\nimport \"@openzeppelin/contracts/math/SafeMath.sol\";\n\ncontract CrossBoarderPayment is ICrossBoarderPayment{\n    \n    using StringUtil for string;\n    using SafeMath for uint256;\n    \n    struct Transfer {\n        address issuer;\n        address origin;\n        address target;\n        address operator;\n        uint256 value;\n        uint256 fee;\n        uint256 tasa;\n        TransferStatusCode status;\n    }\n    \n    EmoneyTokenDollar internal eDollars;\n    EmoneyTokenPeso internal ePesos;\n\n    constructor(EmoneyTokenDollar _eDollars, EmoneyTokenPeso _ePesos, address _feeAgent) public {\n        require(address(_eDollars) != address(0), \"EDollars Token address can not be zero address\");\n        require(address(_ePesos) != address(0), \"EPesos Token address can not be zero address\");\n        eDollars = _eDollars;\n        ePesos = _ePesos;\n        transferAgent = msg.sender;\n        feeAgent = _feeAgent;\n    }\n\n    mapping(bytes32 => Transfer) private orderedTransfers;\n    address public transferAgent;\n    address public feeAgent;\n\n    function orderTransfer(string calldata operationId, address to, address operator, uint256 value) external returns (bool) {\n        emit TransferOrdered(\n            msg.sender,\n            operationId,\n            to,\n            operator,\n            value\n        );\n        \n        _checkTransfer(to);\n\n        return _orderTransfer(\n            msg.sender,\n            operationId,\n            to,\n            operator,\n            value\n        );\n    }\n    \n    function setFeeTasa(string calldata operationId, uint256 fee, uint256 tasa) external returns (bool){\n        require(msg.sender == feeAgent, \"Set fee can only be executed by the fee agent\");\n        emit FeeTasaSeted(operationId, msg.sender, fee, tasa);\n        return _setFeeTasa(operationId, fee, tasa);\n    }\n\n    function cancelTransfer(string calldata operationId) external returns (bool) {\n        bytes32 operationIdHash = operationId.toHash();\n\n        Transfer storage cancelableTransfer = orderedTransfers[operationIdHash];\n\n        require(cancelableTransfer.status == TransferStatusCode.Ordered, \"A transfer can only be cancelled in status Ordered\");\n        require(\n            msg.sender == cancelableTransfer.issuer || msg.sender == cancelableTransfer.origin,\n            \"A transfer can only be cancelled by the orderer or the walletToBePaidOut\"\n        );\n\n        eDollars.releaseHold(operationId);\n\n        cancelableTransfer.status = TransferStatusCode.Cancelled;\n\n        emit TransferCancelled(\n            cancelableTransfer.issuer,\n            operationId\n        );\n\n        return true;\n    }\n\n    function processTransfer(string calldata operationId) external returns (bool) {\n        bytes32 operationIdHash = operationId.toHash();\n\n        Transfer storage transferOrdered = orderedTransfers[operationIdHash];\n        eDollars.hold(operationId,transferOrdered.origin,transferOrdered.target,msg.sender,transferOrdered.value,0);\n        \n    }\n    \n    function executeTransfer(string calldata operationId) external returns (bool){\n        require(msg.sender == transferAgent, \"A transfer can only be executed by the transfer agent\");\n        _burnHolding(operationId);\n        _executeTransfer(operationId);\n        \n        return true;\n    }\n\n/*    function rejectTransfer(string calldata operationId, string calldata reason) external returns (bool) {\n        bytes32 operationIdHash = operationId.toHash();\n\n        Transfer storage rejectedPayout = orderedTransfers[operationIdHash];\n\n        require(rejectedPayout.status == TransferStatusCode.Ordered, \"A payout can only be rejected from status Ordered\");\n        require(msg.sender == payoutAgent, \"A payout can only be rejected by the payout agent\");\n\n        Hold storage rejectedHold = holds[operationIdHash];\n\n        _releaseHold(operationId);\n\n        rejectedPayout.status = TransferStatusCode.Rejected;\n\n        emit PayoutRejected(\n            rejectedHold.issuer,\n            operationId,\n            reason\n        );\n\n        return true;\n    } */\n\n    function retrieveTransferData(string calldata operationId) external view returns (\n        address origin,\n        address to,\n        address operator,\n        uint256 value,\n        uint256 fee,\n        uint256 tasa,\n        TransferStatusCode status\n    )\n    {\n        bytes32 operationIdHash = operationId.toHash();\n\n        Transfer storage retrievedTransfer = orderedTransfers[operationIdHash];\n//        Hold storage retrievedHold = holds[operationIdHash];\n\n        return (\n            retrievedTransfer.origin,\n            retrievedTransfer.target,\n            retrievedTransfer.operator,\n            retrievedTransfer.value,\n            retrievedTransfer.fee,\n            retrievedTransfer.tasa,\n            retrievedTransfer.status\n        );\n    }\n\n    function _orderTransfer(\n        address orderer,\n        string memory operationId,\n        address walletToBeTransfered,\n        address operator,\n        uint256 value\n    ) internal returns (bool)\n    {\n        Transfer storage newTransfer = orderedTransfers[operationId.toHash()];\n        require(newTransfer.value == 0, \"This operationId already exists\");\n        require(operator != address(0), \"Operator address must not be zero address\");\n        require(value > 0, \"Value must be greater than zero\");\n\n        require(eDollars.balanceOf(orderer)>value,\"Account doesn't have founds to transfer\");\n        require(ePesos.isWhitelisted(walletToBeTransfered), \"Destination Account isn't whitelisted\");\n        \n        newTransfer.issuer = msg.sender;\n        newTransfer.origin = orderer;\n        newTransfer.target = walletToBeTransfered;\n        newTransfer.operator = operator;\n        newTransfer.value = value;\n        newTransfer.status = TransferStatusCode.Ordered;\n        \n        eDollars.hold(operationId,newTransfer.origin,newTransfer.target,newTransfer.operator,newTransfer.value,0);\n    \n        return true;\n    }\n    \n    function _burnHolding(string memory operationId) internal returns(bool){\n        Transfer storage orderedTransfer = orderedTransfers[operationId.toHash()];\n        require(orderedTransfer.value != 0, \"This operationId doesn't exist\");\n        require(orderedTransfer.status == TransferStatusCode.FeeSet, \"A transfer can only be executed from status FeeSet\");\n        eDollars.executeHold(operationId,orderedTransfer.value);\n        orderedTransfer.status = TransferStatusCode.HoldBurned;\n    }\n    \n    function _executeTransfer(string memory operationId) internal returns(bool){\n        Transfer storage orderedTransfer = orderedTransfers[operationId.toHash()];\n        require(orderedTransfer.value != 0, \"This operationId doesn't exist\");\n        require(orderedTransfer.status == TransferStatusCode.HoldBurned, \"A transfer can only be executed from status HoldBurned\");\n        ePesos.mint(orderedTransfer.target, orderedTransfer.value.sub(orderedTransfer.fee));\n        eDollars.mint(orderedTransfer.operator,orderedTransfer.fee);\n        emit TransferExecuted(msg.sender, operationId);\n    }\n    \n    function _setFeeTasa(string memory operationId, uint256 fee, uint256 tasa) internal returns(bool){\n        Transfer storage orderedTransfer = orderedTransfers[operationId.toHash()];\n        require(orderedTransfer.value != 0, \"This operationId doesn't exist\");\n        require(fee > 0, \"Fee must be greater than zero\");\n        require(tasa > 0, \"Fee must be greater than zero\");\n        orderedTransfer.fee = fee;\n        orderedTransfer.tasa = tasa;\n        orderedTransfer.status = TransferStatusCode.FeeSet;\n        \n    }\n    \n    function _checkTransfer(address to) private pure {\n        require(to != address(0), \"Payee address must not be zero address\");\n    }\n    \n}",
  "sourcePath": "/home/adrianpareja/CrossBoarderPayment/contracts/CrossBoarderPayment.sol",
  "compiler": {
    "name": "solc",
    "version": "0.5.12+commit.7709ece9.Emscripten.clang"
  },
  "schemaVersion": "3.0.19",
  "updatedAt": "2020-02-01T05:24:45.556Z",
  "networkType": "ethereum",
  "devdoc": {
    "methods": {}
  },
  "userdoc": {
    "methods": {}
  }
}