{
  "contractName": "EmoneyToken",
  "abi": [
    {
      "anonymous": false,
      "inputs": [
        {
          "indexed": true,
          "internalType": "address",
          "name": "owner",
          "type": "address"
        },
        {
          "indexed": true,
          "internalType": "address",
          "name": "spender",
          "type": "address"
        },
        {
          "indexed": false,
          "internalType": "uint256",
          "name": "value",
          "type": "uint256"
        }
      ],
      "name": "Approval",
      "type": "event"
    },
    {
      "anonymous": false,
      "inputs": [
        {
          "indexed": true,
          "internalType": "address",
          "name": "holdIssuer",
          "type": "address"
        },
        {
          "indexed": false,
          "internalType": "string",
          "name": "operationId",
          "type": "string"
        },
        {
          "indexed": false,
          "internalType": "address",
          "name": "from",
          "type": "address"
        },
        {
          "indexed": false,
          "internalType": "address",
          "name": "to",
          "type": "address"
        },
        {
          "indexed": true,
          "internalType": "address",
          "name": "notary",
          "type": "address"
        },
        {
          "indexed": false,
          "internalType": "uint256",
          "name": "value",
          "type": "uint256"
        },
        {
          "indexed": false,
          "internalType": "uint256",
          "name": "expiration",
          "type": "uint256"
        }
      ],
      "name": "HoldCreated",
      "type": "event"
    },
    {
      "anonymous": false,
      "inputs": [
        {
          "indexed": true,
          "internalType": "address",
          "name": "holdIssuer",
          "type": "address"
        },
        {
          "indexed": false,
          "internalType": "string",
          "name": "operationId",
          "type": "string"
        },
        {
          "indexed": true,
          "internalType": "address",
          "name": "notary",
          "type": "address"
        },
        {
          "indexed": false,
          "internalType": "uint256",
          "name": "heldValue",
          "type": "uint256"
        },
        {
          "indexed": false,
          "internalType": "uint256",
          "name": "transferredValue",
          "type": "uint256"
        }
      ],
      "name": "HoldExecuted",
      "type": "event"
    },
    {
      "anonymous": false,
      "inputs": [
        {
          "indexed": true,
          "internalType": "address",
          "name": "holdIssuer",
          "type": "address"
        },
        {
          "indexed": false,
          "internalType": "string",
          "name": "operationId",
          "type": "string"
        },
        {
          "indexed": false,
          "internalType": "enum IHoldable.HoldStatusCode",
          "name": "status",
          "type": "uint8"
        }
      ],
      "name": "HoldReleased",
      "type": "event"
    },
    {
      "anonymous": false,
      "inputs": [
        {
          "indexed": true,
          "internalType": "address",
          "name": "account",
          "type": "address"
        }
      ],
      "name": "MinterAdded",
      "type": "event"
    },
    {
      "anonymous": false,
      "inputs": [
        {
          "indexed": true,
          "internalType": "address",
          "name": "account",
          "type": "address"
        }
      ],
      "name": "MinterRemoved",
      "type": "event"
    },
    {
      "anonymous": false,
      "inputs": [
        {
          "indexed": true,
          "internalType": "address",
          "name": "from",
          "type": "address"
        },
        {
          "indexed": true,
          "internalType": "address",
          "name": "to",
          "type": "address"
        },
        {
          "indexed": false,
          "internalType": "uint256",
          "name": "value",
          "type": "uint256"
        }
      ],
      "name": "Transfer",
      "type": "event"
    },
    {
      "anonymous": false,
      "inputs": [
        {
          "indexed": true,
          "internalType": "address",
          "name": "account",
          "type": "address"
        }
      ],
      "name": "WhitelistAdminAdded",
      "type": "event"
    },
    {
      "anonymous": false,
      "inputs": [
        {
          "indexed": true,
          "internalType": "address",
          "name": "account",
          "type": "address"
        }
      ],
      "name": "WhitelistAdminRemoved",
      "type": "event"
    },
    {
      "anonymous": false,
      "inputs": [
        {
          "indexed": true,
          "internalType": "address",
          "name": "account",
          "type": "address"
        }
      ],
      "name": "WhitelistedAdded",
      "type": "event"
    },
    {
      "anonymous": false,
      "inputs": [
        {
          "indexed": true,
          "internalType": "address",
          "name": "account",
          "type": "address"
        }
      ],
      "name": "WhitelistedRemoved",
      "type": "event"
    },
    {
      "constant": false,
      "inputs": [
        {
          "internalType": "address",
          "name": "account",
          "type": "address"
        }
      ],
      "name": "addMinter",
      "outputs": [],
      "payable": false,
      "stateMutability": "nonpayable",
      "type": "function"
    },
    {
      "constant": false,
      "inputs": [
        {
          "internalType": "address",
          "name": "account",
          "type": "address"
        }
      ],
      "name": "addWhitelistAdmin",
      "outputs": [],
      "payable": false,
      "stateMutability": "nonpayable",
      "type": "function"
    },
    {
      "constant": false,
      "inputs": [
        {
          "internalType": "address",
          "name": "account",
          "type": "address"
        }
      ],
      "name": "addWhitelisted",
      "outputs": [],
      "payable": false,
      "stateMutability": "nonpayable",
      "type": "function"
    },
    {
      "constant": true,
      "inputs": [
        {
          "internalType": "address",
          "name": "owner",
          "type": "address"
        },
        {
          "internalType": "address",
          "name": "spender",
          "type": "address"
        }
      ],
      "name": "allowance",
      "outputs": [
        {
          "internalType": "uint256",
          "name": "",
          "type": "uint256"
        }
      ],
      "payable": false,
      "stateMutability": "view",
      "type": "function"
    },
    {
      "constant": false,
      "inputs": [
        {
          "internalType": "address",
          "name": "spender",
          "type": "address"
        },
        {
          "internalType": "uint256",
          "name": "amount",
          "type": "uint256"
        }
      ],
      "name": "approve",
      "outputs": [
        {
          "internalType": "bool",
          "name": "",
          "type": "bool"
        }
      ],
      "payable": false,
      "stateMutability": "nonpayable",
      "type": "function"
    },
    {
      "constant": false,
      "inputs": [
        {
          "internalType": "address",
          "name": "spender",
          "type": "address"
        },
        {
          "internalType": "uint256",
          "name": "subtractedValue",
          "type": "uint256"
        }
      ],
      "name": "decreaseAllowance",
      "outputs": [
        {
          "internalType": "bool",
          "name": "",
          "type": "bool"
        }
      ],
      "payable": false,
      "stateMutability": "nonpayable",
      "type": "function"
    },
    {
      "constant": false,
      "inputs": [
        {
          "internalType": "address",
          "name": "spender",
          "type": "address"
        },
        {
          "internalType": "uint256",
          "name": "addedValue",
          "type": "uint256"
        }
      ],
      "name": "increaseAllowance",
      "outputs": [
        {
          "internalType": "bool",
          "name": "",
          "type": "bool"
        }
      ],
      "payable": false,
      "stateMutability": "nonpayable",
      "type": "function"
    },
    {
      "constant": true,
      "inputs": [
        {
          "internalType": "address",
          "name": "account",
          "type": "address"
        }
      ],
      "name": "isMinter",
      "outputs": [
        {
          "internalType": "bool",
          "name": "",
          "type": "bool"
        }
      ],
      "payable": false,
      "stateMutability": "view",
      "type": "function"
    },
    {
      "constant": true,
      "inputs": [
        {
          "internalType": "address",
          "name": "account",
          "type": "address"
        }
      ],
      "name": "isWhitelistAdmin",
      "outputs": [
        {
          "internalType": "bool",
          "name": "",
          "type": "bool"
        }
      ],
      "payable": false,
      "stateMutability": "view",
      "type": "function"
    },
    {
      "constant": true,
      "inputs": [
        {
          "internalType": "address",
          "name": "account",
          "type": "address"
        }
      ],
      "name": "isWhitelisted",
      "outputs": [
        {
          "internalType": "bool",
          "name": "",
          "type": "bool"
        }
      ],
      "payable": false,
      "stateMutability": "view",
      "type": "function"
    },
    {
      "constant": false,
      "inputs": [
        {
          "internalType": "address",
          "name": "account",
          "type": "address"
        }
      ],
      "name": "removeWhitelisted",
      "outputs": [],
      "payable": false,
      "stateMutability": "nonpayable",
      "type": "function"
    },
    {
      "constant": false,
      "inputs": [],
      "name": "renounceMinter",
      "outputs": [],
      "payable": false,
      "stateMutability": "nonpayable",
      "type": "function"
    },
    {
      "constant": false,
      "inputs": [],
      "name": "renounceWhitelistAdmin",
      "outputs": [],
      "payable": false,
      "stateMutability": "nonpayable",
      "type": "function"
    },
    {
      "constant": false,
      "inputs": [],
      "name": "renounceWhitelisted",
      "outputs": [],
      "payable": false,
      "stateMutability": "nonpayable",
      "type": "function"
    },
    {
      "constant": true,
      "inputs": [],
      "name": "totalSupply",
      "outputs": [
        {
          "internalType": "uint256",
          "name": "",
          "type": "uint256"
        }
      ],
      "payable": false,
      "stateMutability": "view",
      "type": "function"
    },
    {
      "constant": false,
      "inputs": [
        {
          "internalType": "address",
          "name": "account",
          "type": "address"
        },
        {
          "internalType": "uint256",
          "name": "amount",
          "type": "uint256"
        }
      ],
      "name": "mint",
      "outputs": [
        {
          "internalType": "bool",
          "name": "",
          "type": "bool"
        }
      ],
      "payable": false,
      "stateMutability": "nonpayable",
      "type": "function"
    },
    {
      "constant": false,
      "inputs": [
        {
          "internalType": "address",
          "name": "account",
          "type": "address"
        },
        {
          "internalType": "uint256",
          "name": "amount",
          "type": "uint256"
        }
      ],
      "name": "burn",
      "outputs": [
        {
          "internalType": "bool",
          "name": "",
          "type": "bool"
        }
      ],
      "payable": false,
      "stateMutability": "nonpayable",
      "type": "function"
    },
    {
      "constant": false,
      "inputs": [
        {
          "internalType": "string",
          "name": "operationId",
          "type": "string"
        },
        {
          "internalType": "address",
          "name": "from",
          "type": "address"
        },
        {
          "internalType": "address",
          "name": "to",
          "type": "address"
        },
        {
          "internalType": "address",
          "name": "notary",
          "type": "address"
        },
        {
          "internalType": "uint256",
          "name": "value",
          "type": "uint256"
        },
        {
          "internalType": "uint256",
          "name": "timeToExpiration",
          "type": "uint256"
        }
      ],
      "name": "hold",
      "outputs": [
        {
          "internalType": "bool",
          "name": "",
          "type": "bool"
        }
      ],
      "payable": false,
      "stateMutability": "nonpayable",
      "type": "function"
    },
    {
      "constant": false,
      "inputs": [
        {
          "internalType": "string",
          "name": "operationId",
          "type": "string"
        }
      ],
      "name": "releaseHold",
      "outputs": [
        {
          "internalType": "bool",
          "name": "",
          "type": "bool"
        }
      ],
      "payable": false,
      "stateMutability": "nonpayable",
      "type": "function"
    },
    {
      "constant": false,
      "inputs": [
        {
          "internalType": "string",
          "name": "operationId",
          "type": "string"
        },
        {
          "internalType": "uint256",
          "name": "value",
          "type": "uint256"
        }
      ],
      "name": "executeHold",
      "outputs": [
        {
          "internalType": "bool",
          "name": "",
          "type": "bool"
        }
      ],
      "payable": false,
      "stateMutability": "nonpayable",
      "type": "function"
    },
    {
      "constant": true,
      "inputs": [
        {
          "internalType": "address",
          "name": "account",
          "type": "address"
        }
      ],
      "name": "balanceOf",
      "outputs": [
        {
          "internalType": "uint256",
          "name": "",
          "type": "uint256"
        }
      ],
      "payable": false,
      "stateMutability": "view",
      "type": "function"
    },
    {
      "constant": false,
      "inputs": [
        {
          "internalType": "address",
          "name": "_to",
          "type": "address"
        },
        {
          "internalType": "uint256",
          "name": "_value",
          "type": "uint256"
        }
      ],
      "name": "transfer",
      "outputs": [
        {
          "internalType": "bool",
          "name": "",
          "type": "bool"
        }
      ],
      "payable": false,
      "stateMutability": "nonpayable",
      "type": "function"
    },
    {
      "constant": false,
      "inputs": [
        {
          "internalType": "address",
          "name": "_from",
          "type": "address"
        },
        {
          "internalType": "address",
          "name": "_to",
          "type": "address"
        },
        {
          "internalType": "uint256",
          "name": "_value",
          "type": "uint256"
        }
      ],
      "name": "transferFrom",
      "outputs": [
        {
          "internalType": "bool",
          "name": "",
          "type": "bool"
        }
      ],
      "payable": false,
      "stateMutability": "nonpayable",
      "type": "function"
    },
    {
      "constant": true,
      "inputs": [
        {
          "internalType": "address",
          "name": "account",
          "type": "address"
        }
      ],
      "name": "balanceOnHold",
      "outputs": [
        {
          "internalType": "uint256",
          "name": "",
          "type": "uint256"
        }
      ],
      "payable": false,
      "stateMutability": "view",
      "type": "function"
    },
    {
      "constant": true,
      "inputs": [
        {
          "internalType": "address",
          "name": "account",
          "type": "address"
        }
      ],
      "name": "netBalanceOf",
      "outputs": [
        {
          "internalType": "uint256",
          "name": "",
          "type": "uint256"
        }
      ],
      "payable": false,
      "stateMutability": "view",
      "type": "function"
    },
    {
      "constant": true,
      "inputs": [],
      "name": "totalSupplyOnHold",
      "outputs": [
        {
          "internalType": "uint256",
          "name": "",
          "type": "uint256"
        }
      ],
      "payable": false,
      "stateMutability": "view",
      "type": "function"
    }
  ],
  "bytecode": "0x608060405262000024620000186200004a60201b60201c565b6200005260201b60201c565b62000044620000386200004a60201b60201c565b620000b360201b60201c565b620002d8565b600033905090565b6200006d8160036200011460201b62002dbb1790919060201c565b8073ffffffffffffffffffffffffffffffffffffffff167f6ae172837ea30b801fbfcdd4108aa1d5bf8ff775444fd70256b44e6bf3dfc3f660405160405180910390a250565b620000ce8160046200011460201b62002dbb1790919060201c565b8073ffffffffffffffffffffffffffffffffffffffff167f22380c05984257a1cb900161c713dd71d39e74820f1aea43bd3f1bdd2096129960405160405180910390a250565b620001268282620001f860201b60201c565b156200019a576040517f08c379a000000000000000000000000000000000000000000000000000000000815260040180806020018281038252601f8152602001807f526f6c65733a206163636f756e7420616c72656164792068617320726f6c650081525060200191505060405180910390fd5b60018260000160008373ffffffffffffffffffffffffffffffffffffffff1673ffffffffffffffffffffffffffffffffffffffff16815260200190815260200160002060006101000a81548160ff0219169083151502179055505050565b60008073ffffffffffffffffffffffffffffffffffffffff168273ffffffffffffffffffffffffffffffffffffffff16141562000281576040517f08c379a0000000000000000000000000000000000000000000000000000000008152600401808060200182810382526022815260200180620038b66022913960400191505060405180910390fd5b8260000160008373ffffffffffffffffffffffffffffffffffffffff1673ffffffffffffffffffffffffffffffffffffffff16815260200190815260200160002060009054906101000a900460ff16905092915050565b6135ce80620002e86000396000f3fe608060405234801561001057600080fd5b506004361061018e5760003560e01c80638e232a0f116100de578063a9059cbb11610097578063c5a468c611610071578063c5a468c6146109bb578063d6cd947314610a13578063da7d3d0414610a1d578063dd62ed3e14610afa5761018e565b8063a9059cbb1461089d578063aa271e1a14610903578063bb5f747b1461095f5761018e565b80638e232a0f146105695780638e4a5a92146106b0578063983b2d561461078357806398650275146107c75780639dc29fac146107d1578063a457c2d7146108375761018e565b8063395093511161014b5780634c5a628c116101255780634c5a628c146104a557806351bfb961146104af57806370a08231146104cd5780637362d9c8146105255761018e565b8063395093511461037d5780633af32abf146103e357806340c10f191461043f5761018e565b8063095ea7b3146101935780630b986a50146101f957806310154bad1461025157806318160ddd1461029557806323b872dd146102b3578063291d954914610339575b600080fd5b6101df600480360360408110156101a957600080fd5b81019080803573ffffffffffffffffffffffffffffffffffffffff16906020019092919080359060200190929190505050610b72565b604051808215151515815260200191505060405180910390f35b61023b6004803603602081101561020f57600080fd5b81019080803573ffffffffffffffffffffffffffffffffffffffff169060200190929190505050610b90565b6040518082815260200191505060405180910390f35b6102936004803603602081101561026757600080fd5b81019080803573ffffffffffffffffffffffffffffffffffffffff169060200190929190505050610ba2565b005b61029d610c13565b6040518082815260200191505060405180910390f35b61031f600480360360608110156102c957600080fd5b81019080803573ffffffffffffffffffffffffffffffffffffffff169060200190929190803573ffffffffffffffffffffffffffffffffffffffff16906020019092919080359060200190929190505050610c1d565b604051808215151515815260200191505060405180910390f35b61037b6004803603602081101561034f57600080fd5b81019080803573ffffffffffffffffffffffffffffffffffffffff169060200190929190505050610cb1565b005b6103c96004803603604081101561039357600080fd5b81019080803573ffffffffffffffffffffffffffffffffffffffff16906020019092919080359060200190929190505050610d22565b604051808215151515815260200191505060405180910390f35b610425600480360360208110156103f957600080fd5b81019080803573ffffffffffffffffffffffffffffffffffffffff169060200190929190505050610dd5565b604051808215151515815260200191505060405180910390f35b61048b6004803603604081101561045557600080fd5b81019080803573ffffffffffffffffffffffffffffffffffffffff16906020019092919080359060200190929190505050610df2565b604051808215151515815260200191505060405180910390f35b6104ad610ee8565b005b6104b7610efa565b6040518082815260200191505060405180910390f35b61050f600480360360208110156104e357600080fd5b81019080803573ffffffffffffffffffffffffffffffffffffffff169060200190929190505050610f04565b6040518082815260200191505060405180910390f35b6105676004803603602081101561053b57600080fd5b81019080803573ffffffffffffffffffffffffffffffffffffffff169060200190929190505050610f67565b005b610696600480360360c081101561057f57600080fd5b810190808035906020019064010000000081111561059c57600080fd5b8201836020820111156105ae57600080fd5b803590602001918460018302840111640100000000831117156105d057600080fd5b91908080601f016020809104026020016040519081016040528093929190818152602001838380828437600081840152601f19601f820116905080830192505050505050509192919290803573ffffffffffffffffffffffffffffffffffffffff169060200190929190803573ffffffffffffffffffffffffffffffffffffffff169060200190929190803573ffffffffffffffffffffffffffffffffffffffff1690602001909291908035906020019092919080359060200190929190505050610fd8565b604051808215151515815260200191505060405180910390f35b610769600480360360208110156106c657600080fd5b81019080803590602001906401000000008111156106e357600080fd5b8201836020820111156106f557600080fd5b8035906020019184600183028401116401000000008311171561071757600080fd5b91908080601f016020809104026020016040519081016040528093929190818152602001838380828437600081840152601f19601f820116905080830192505050505050509192919290505050611006565b604051808215151515815260200191505060405180910390f35b6107c56004803603602081101561079957600080fd5b81019080803573ffffffffffffffffffffffffffffffffffffffff169060200190929190505050611038565b005b6107cf6110a9565b005b61081d600480360360408110156107e757600080fd5b81019080803573ffffffffffffffffffffffffffffffffffffffff169060200190929190803590602001909291905050506110bb565b604051808215151515815260200191505060405180910390f35b6108836004803603604081101561084d57600080fd5b81019080803573ffffffffffffffffffffffffffffffffffffffff16906020019092919080359060200190929190505050611136565b604051808215151515815260200191505060405180910390f35b6108e9600480360360408110156108b357600080fd5b81019080803573ffffffffffffffffffffffffffffffffffffffff16906020019092919080359060200190929190505050611203565b604051808215151515815260200191505060405180910390f35b6109456004803603602081101561091957600080fd5b81019080803573ffffffffffffffffffffffffffffffffffffffff169060200190929190505050611295565b604051808215151515815260200191505060405180910390f35b6109a16004803603602081101561097557600080fd5b81019080803573ffffffffffffffffffffffffffffffffffffffff1690602001909291905050506112b2565b604051808215151515815260200191505060405180910390f35b6109fd600480360360208110156109d157600080fd5b81019080803573ffffffffffffffffffffffffffffffffffffffff1690602001909291905050506112cf565b6040518082815260200191505060405180910390f35b610a1b611318565b005b610ae060048036036040811015610a3357600080fd5b8101908080359060200190640100000000811115610a5057600080fd5b820183602082011115610a6257600080fd5b80359060200191846001830284011164010000000083111715610a8457600080fd5b91908080601f016020809104026020016040519081016040528093929190818152602001838380828437600081840152601f19601f8201169050808301925050505050505091929192908035906020019092919050505061132a565b604051808215151515815260200191505060405180910390f35b610b5c60048036036040811015610b1057600080fd5b81019080803573ffffffffffffffffffffffffffffffffffffffff169060200190929190803573ffffffffffffffffffffffffffffffffffffffff16906020019092919050505061133e565b6040518082815260200191505060405180910390f35b6000610b86610b7f6113c5565b84846113cd565b6001905092915050565b6000610b9b826115c4565b9050919050565b610bb2610bad6113c5565b6112b2565b610c07576040517f08c379a00000000000000000000000000000000000000000000000000000000081526004018080602001828103825260408152602001806134376040913960400191505060405180910390fd5b610c108161160c565b50565b6000600254905090565b600081610c2985610f04565b1015610c9d576040517f08c379a000000000000000000000000000000000000000000000000000000000815260040180806020018281038252601c8152602001807f4e6f7420656e6f75676820617661696c61626c652062616c616e63650000000081525060200191505060405180910390fd5b610ca8848484611666565b90509392505050565b610cc1610cbc6113c5565b6112b2565b610d16576040517f08c379a00000000000000000000000000000000000000000000000000000000081526004018080602001828103825260408152602001806134376040913960400191505060405180910390fd5b610d1f8161173f565b50565b6000610dcb610d2f6113c5565b84610dc68560016000610d406113c5565b73ffffffffffffffffffffffffffffffffffffffff1673ffffffffffffffffffffffffffffffffffffffff16815260200190815260200160002060008973ffffffffffffffffffffffffffffffffffffffff1673ffffffffffffffffffffffffffffffffffffffff1681526020019081526020016000205461179990919063ffffffff16565b6113cd565b6001905092915050565b6000610deb82600561182190919063ffffffff16565b9050919050565b6000610e04610dff6113c5565b611295565b610e59576040517f08c379a00000000000000000000000000000000000000000000000000000000081526004018080602001828103825260308152602001806133666030913960400191505060405180910390fd5b610e6283610dd5565b610ed4576040517f08c379a00000000000000000000000000000000000000000000000000000000081526004018080602001828103825260198152602001807f4163636f756e742069736e27742077686974656c69737465640000000000000081525060200191505060405180910390fd5b610ede83836118ff565b6001905092915050565b610ef8610ef36113c5565b611aba565b565b6000600854905090565b6000610f60600760008473ffffffffffffffffffffffffffffffffffffffff1673ffffffffffffffffffffffffffffffffffffffff16815260200190815260200160002054610f52846115c4565b611b1490919063ffffffff16565b9050919050565b610f77610f726113c5565b6112b2565b610fcc576040517f08c379a00000000000000000000000000000000000000000000000000000000081526004018080602001828103825260408152602001806134376040913960400191505060405180910390fd5b610fd581611b5e565b50565b6000610fe385611bb8565b610ffa873388888888610ff589611c41565b611c6f565b90509695505050505050565b6000806006600061101685612228565b8152602001908152602001600020905061103081846122bd565b915050919050565b6110486110436113c5565b611295565b61109d576040517f08c379a00000000000000000000000000000000000000000000000000000000081526004018080602001828103825260308152602001806133666030913960400191505060405180910390fd5b6110a6816126f3565b50565b6110b96110b46113c5565b61274d565b565b60006110cd6110c86113c5565b611295565b611122576040517f08c379a00000000000000000000000000000000000000000000000000000000081526004018080602001828103825260308152602001806133666030913960400191505060405180910390fd5b61112c83836127a7565b6001905092915050565b60006111f96111436113c5565b846111f485604051806060016040528060258152602001613575602591396001600061116d6113c5565b73ffffffffffffffffffffffffffffffffffffffff1673ffffffffffffffffffffffffffffffffffffffff16815260200190815260200160002060008a73ffffffffffffffffffffffffffffffffffffffff1673ffffffffffffffffffffffffffffffffffffffff1681526020019081526020016000205461295f9092919063ffffffff16565b6113cd565b6001905092915050565b60008161120f33610f04565b1015611283576040517f08c379a000000000000000000000000000000000000000000000000000000000815260040180806020018281038252601c8152602001807f4e6f7420656e6f75676820617661696c61626c652062616c616e63650000000081525060200191505060405180910390fd5b61128d8383612a1f565b905092915050565b60006112ab82600361182190919063ffffffff16565b9050919050565b60006112c882600461182190919063ffffffff16565b9050919050565b6000600760008373ffffffffffffffffffffffffffffffffffffffff1673ffffffffffffffffffffffffffffffffffffffff168152602001908152602001600020549050919050565b6113286113236113c5565b61173f565b565b60006113368383612a3d565b905092915050565b6000600160008473ffffffffffffffffffffffffffffffffffffffff1673ffffffffffffffffffffffffffffffffffffffff16815260200190815260200160002060008373ffffffffffffffffffffffffffffffffffffffff1673ffffffffffffffffffffffffffffffffffffffff16815260200190815260200160002054905092915050565b600033905090565b600073ffffffffffffffffffffffffffffffffffffffff168373ffffffffffffffffffffffffffffffffffffffff161415611453576040517f08c379a00000000000000000000000000000000000000000000000000000000081526004018080602001828103825260248152602001806134ff6024913960400191505060405180910390fd5b600073ffffffffffffffffffffffffffffffffffffffff168273ffffffffffffffffffffffffffffffffffffffff1614156114d9576040517f08c379a000000000000000000000000000000000000000000000000000000000815260040180806020018281038252602281526020018061329e6022913960400191505060405180910390fd5b80600160008573ffffffffffffffffffffffffffffffffffffffff1673ffffffffffffffffffffffffffffffffffffffff16815260200190815260200160002060008473ffffffffffffffffffffffffffffffffffffffff1673ffffffffffffffffffffffffffffffffffffffff168152602001908152602001600020819055508173ffffffffffffffffffffffffffffffffffffffff168373ffffffffffffffffffffffffffffffffffffffff167f8c5be1e5ebec7d5bd14f71427d1e84f3dd0314c0f7b2291e5b200ac8c7c3b925836040518082815260200191505060405180910390a3505050565b60008060008373ffffffffffffffffffffffffffffffffffffffff1673ffffffffffffffffffffffffffffffffffffffff168152602001908152602001600020549050919050565b611620816005612dbb90919063ffffffff16565b8073ffffffffffffffffffffffffffffffffffffffff167fee1504a83b6d4a361f4c1dc78ab59bfa30d6a3b6612c403e86bb01ef2984295f60405160405180910390a250565b6000611673848484612e96565b6117348461167f6113c5565b61172f856040518060600160405280602881526020016133ed60289139600160008b73ffffffffffffffffffffffffffffffffffffffff1673ffffffffffffffffffffffffffffffffffffffff16815260200190815260200160002060006116e56113c5565b73ffffffffffffffffffffffffffffffffffffffff1673ffffffffffffffffffffffffffffffffffffffff1681526020019081526020016000205461295f9092919063ffffffff16565b6113cd565b600190509392505050565b61175381600561314c90919063ffffffff16565b8073ffffffffffffffffffffffffffffffffffffffff167f270d9b30cf5b0793bbfd54c9d5b94aeb49462b8148399000265144a8722da6b660405160405180910390a250565b600080828401905083811015611817576040517f08c379a000000000000000000000000000000000000000000000000000000000815260040180806020018281038252601b8152602001807f536166654d6174683a206164646974696f6e206f766572666c6f77000000000081525060200191505060405180910390fd5b8091505092915050565b60008073ffffffffffffffffffffffffffffffffffffffff168273ffffffffffffffffffffffffffffffffffffffff1614156118a8576040517f08c379a00000000000000000000000000000000000000000000000000000000081526004018080602001828103825260228152602001806134156022913960400191505060405180910390fd5b8260000160008373ffffffffffffffffffffffffffffffffffffffff1673ffffffffffffffffffffffffffffffffffffffff16815260200190815260200160002060009054906101000a900460ff16905092915050565b600073ffffffffffffffffffffffffffffffffffffffff168273ffffffffffffffffffffffffffffffffffffffff1614156119a2576040517f08c379a000000000000000000000000000000000000000000000000000000000815260040180806020018281038252601f8152602001807f45524332303a206d696e7420746f20746865207a65726f20616464726573730081525060200191505060405180910390fd5b6119b78160025461179990919063ffffffff16565b600281905550611a0e816000808573ffffffffffffffffffffffffffffffffffffffff1673ffffffffffffffffffffffffffffffffffffffff1681526020019081526020016000205461179990919063ffffffff16565b6000808473ffffffffffffffffffffffffffffffffffffffff1673ffffffffffffffffffffffffffffffffffffffff168152602001908152602001600020819055508173ffffffffffffffffffffffffffffffffffffffff16600073ffffffffffffffffffffffffffffffffffffffff167fddf252ad1be2c89b69c2b068fc378daa952ba7f163c4a11628f55a4df523b3ef836040518082815260200191505060405180910390a35050565b611ace81600461314c90919063ffffffff16565b8073ffffffffffffffffffffffffffffffffffffffff167f0a8eb35e5ca14b3d6f28e4abf2f128dbab231a58b56e89beb5d636115001e16560405160405180910390a250565b6000611b5683836040518060400160405280601e81526020017f536166654d6174683a207375627472616374696f6e206f766572666c6f77000081525061295f565b905092915050565b611b72816004612dbb90919063ffffffff16565b8073ffffffffffffffffffffffffffffffffffffffff167f22380c05984257a1cb900161c713dd71d39e74820f1aea43bd3f1bdd2096129960405160405180910390a250565b600073ffffffffffffffffffffffffffffffffffffffff168173ffffffffffffffffffffffffffffffffffffffff161415611c3e576040517f08c379a00000000000000000000000000000000000000000000000000000000081526004018080602001828103825260268152602001806133406026913960400191505060405180910390fd5b50565b6000806000905060008314611c6657611c63834261179990919063ffffffff16565b90505b80915050919050565b60008060066000611c7f8b612228565b81526020019081526020016000209050611c9889613209565b15611d0b576040517f08c379a000000000000000000000000000000000000000000000000000000000815260040180806020018281038252601e8152602001807f4f7065726174696f6e204944206d757374206e6f7420626520656d707479000081525060200191505060405180910390fd5b60008411611d81576040517f08c379a000000000000000000000000000000000000000000000000000000000815260040180806020018281038252601f8152602001807f56616c7565206d7573742062652067726561746572207468616e207a65726f0081525060200191505060405180910390fd5b6000816005015414611dfb576040517f08c379a000000000000000000000000000000000000000000000000000000000815260040180806020018281038252601f8152602001807f54686973206f7065726174696f6e496420616c7265616479206578697374730081525060200191505060405180910390fd5b600073ffffffffffffffffffffffffffffffffffffffff168573ffffffffffffffffffffffffffffffffffffffff161415611e81576040517f08c379a000000000000000000000000000000000000000000000000000000000815260040180806020018281038252602781526020018061354e6027913960400191505060405180910390fd5b611e8a87610f04565b841115611ee2576040517f08c379a000000000000000000000000000000000000000000000000000000000815260040180806020018281038252604281526020018061323a6042913960600191505060405180910390fd5b878160000160006101000a81548173ffffffffffffffffffffffffffffffffffffffff021916908373ffffffffffffffffffffffffffffffffffffffff160217905550868160010160006101000a81548173ffffffffffffffffffffffffffffffffffffffff021916908373ffffffffffffffffffffffffffffffffffffffff160217905550858160020160006101000a81548173ffffffffffffffffffffffffffffffffffffffff021916908373ffffffffffffffffffffffffffffffffffffffff160217905550848160030160006101000a81548173ffffffffffffffffffffffffffffffffffffffff021916908373ffffffffffffffffffffffffffffffffffffffff16021790555083816005018190555060018160060160006101000a81548160ff0219169083600681111561201857fe5b021790555082816004018190555061207884600760008a73ffffffffffffffffffffffffffffffffffffffff1673ffffffffffffffffffffffffffffffffffffffff1681526020019081526020016000205461179990919063ffffffff16565b600760008973ffffffffffffffffffffffffffffffffffffffff1673ffffffffffffffffffffffffffffffffffffffff168152602001908152602001600020819055506120d08460085461179990919063ffffffff16565b6008819055508473ffffffffffffffffffffffffffffffffffffffff168873ffffffffffffffffffffffffffffffffffffffff167f8a1d1765ef42a1fb3d5b0e12ba4b1083e020407cb5ba8e07aaaacf610624aec98b8a8a898960405180806020018673ffffffffffffffffffffffffffffffffffffffff1673ffffffffffffffffffffffffffffffffffffffff1681526020018573ffffffffffffffffffffffffffffffffffffffff1673ffffffffffffffffffffffffffffffffffffffff168152602001848152602001838152602001828103825287818151815260200191508051906020019080838360005b838110156121da5780820151818401526020810190506121bf565b50505050905090810190601f1680156122075780820380516001836020036101000a031916815260200191505b50965050505050505060405180910390a36001915050979650505050505050565b6000816040516020018080602001828103825283818151815260200191508051906020019080838360005b8381101561226e578082015181840152602081019050612253565b50505050905090810190601f16801561229b5780820380516001836020036101000a031916815260200191505b5092505050604051602081830303815290604052805190602001209050919050565b6000600160068111156122cc57fe5b8360060160009054906101000a900460ff1660068111156122e957fe5b1461233f576040517f08c379a000000000000000000000000000000000000000000000000000000000815260040180806020018281038252602d815260200180613313602d913960400191505060405180910390fd5b8260030160009054906101000a900473ffffffffffffffffffffffffffffffffffffffff1673ffffffffffffffffffffffffffffffffffffffff163373ffffffffffffffffffffffffffffffffffffffff1614806123ec57508260020160009054906101000a900473ffffffffffffffffffffffffffffffffffffffff1673ffffffffffffffffffffffffffffffffffffffff163373ffffffffffffffffffffffffffffffffffffffff16145b612441576040517f08c379a00000000000000000000000000000000000000000000000000000000081526004018080602001828103825260428152602001806134986042913960600191505060405180910390fd5b3373ffffffffffffffffffffffffffffffffffffffff168360030160009054906101000a900473ffffffffffffffffffffffffffffffffffffffff1673ffffffffffffffffffffffffffffffffffffffff1614156124c45760048360060160006101000a81548160ff021916908360068111156124ba57fe5b02179055506124eb565b60058360060160006101000a81548160ff021916908360068111156124e557fe5b02179055505b6125658360050154600760008660010160009054906101000a900473ffffffffffffffffffffffffffffffffffffffff1673ffffffffffffffffffffffffffffffffffffffff1673ffffffffffffffffffffffffffffffffffffffff16815260200190815260200160002054611b1490919063ffffffff16565b600760008560010160009054906101000a900473ffffffffffffffffffffffffffffffffffffffff1673ffffffffffffffffffffffffffffffffffffffff1673ffffffffffffffffffffffffffffffffffffffff168152602001908152602001600020819055506125e58360050154600854611b1490919063ffffffff16565b6008819055508260000160009054906101000a900473ffffffffffffffffffffffffffffffffffffffff1673ffffffffffffffffffffffffffffffffffffffff167f4e48b247593fd0b3174316619f9274ea86db0ed03e691c2f8c4e0400e923375e838560060160009054906101000a900460ff16604051808060200183600681111561266e57fe5b60ff168152602001828103825284818151815260200191508051906020019080838360005b838110156126ae578082015181840152602081019050612693565b50505050905090810190601f1680156126db5780820380516001836020036101000a031916815260200191505b50935050505060405180910390a26001905092915050565b612707816003612dbb90919063ffffffff16565b8073ffffffffffffffffffffffffffffffffffffffff167f6ae172837ea30b801fbfcdd4108aa1d5bf8ff775444fd70256b44e6bf3dfc3f660405160405180910390a250565b61276181600361314c90919063ffffffff16565b8073ffffffffffffffffffffffffffffffffffffffff167fe94479a9f7e1952cc78f2d6baab678adc1b772d936c6583def489e524cb6669260405160405180910390a250565b600073ffffffffffffffffffffffffffffffffffffffff168273ffffffffffffffffffffffffffffffffffffffff16141561282d576040517f08c379a00000000000000000000000000000000000000000000000000000000081526004018080602001828103825260218152602001806134776021913960400191505060405180910390fd5b6128988160405180606001604052806022815260200161327c602291396000808673ffffffffffffffffffffffffffffffffffffffff1673ffffffffffffffffffffffffffffffffffffffff1681526020019081526020016000205461295f9092919063ffffffff16565b6000808473ffffffffffffffffffffffffffffffffffffffff1673ffffffffffffffffffffffffffffffffffffffff168152602001908152602001600020819055506128ef81600254611b1490919063ffffffff16565b600281905550600073ffffffffffffffffffffffffffffffffffffffff168273ffffffffffffffffffffffffffffffffffffffff167fddf252ad1be2c89b69c2b068fc378daa952ba7f163c4a11628f55a4df523b3ef836040518082815260200191505060405180910390a35050565b6000838311158290612a0c576040517f08c379a00000000000000000000000000000000000000000000000000000000081526004018080602001828103825283818151815260200191508051906020019080838360005b838110156129d15780820151818401526020810190506129b6565b50505050905090810190601f1680156129fe5780820380516001836020036101000a031916815260200191505b509250505060405180910390fd5b5060008385039050809150509392505050565b6000612a33612a2c6113c5565b8484612e96565b6001905092915050565b60008060066000612a4d86612228565b8152602001908152602001600020905060016006811115612a6a57fe5b8160060160009054906101000a900460ff166006811115612a8757fe5b14612add576040517f08c379a000000000000000000000000000000000000000000000000000000000815260040180806020018281038252602d8152602001806132c0602d913960400191505060405180910390fd5b60008311612b53576040517f08c379a000000000000000000000000000000000000000000000000000000000815260040180806020018281038252601f8152602001807f56616c7565206d7573742062652067726561746572207468616e207a65726f0081525060200191505060405180910390fd5b3373ffffffffffffffffffffffffffffffffffffffff168160030160009054906101000a900473ffffffffffffffffffffffffffffffffffffffff1673ffffffffffffffffffffffffffffffffffffffff1614612bfb576040517f08c379a000000000000000000000000000000000000000000000000000000000815260040180806020018281038252602b815260200180613523602b913960400191505060405180910390fd5b8060050154831115612c58576040517f08c379a00000000000000000000000000000000000000000000000000000000081526004018080602001828103825260368152602001806133b76036913960400191505060405180910390fd5b612cd28160050154600760008460010160009054906101000a900473ffffffffffffffffffffffffffffffffffffffff1673ffffffffffffffffffffffffffffffffffffffff1673ffffffffffffffffffffffffffffffffffffffff16815260200190815260200160002054611b1490919063ffffffff16565b600760008360010160009054906101000a900473ffffffffffffffffffffffffffffffffffffffff1673ffffffffffffffffffffffffffffffffffffffff1673ffffffffffffffffffffffffffffffffffffffff16815260200190815260200160002081905550612d528160050154600854611b1490919063ffffffff16565b600881905550612d8a8160010160009054906101000a900473ffffffffffffffffffffffffffffffffffffffff1682600501546127a7565b60028160060160006101000a81548160ff02191690836006811115612dab57fe5b0217905550600191505092915050565b612dc58282611821565b15612e38576040517f08c379a000000000000000000000000000000000000000000000000000000000815260040180806020018281038252601f8152602001807f526f6c65733a206163636f756e7420616c72656164792068617320726f6c650081525060200191505060405180910390fd5b60018260000160008373ffffffffffffffffffffffffffffffffffffffff1673ffffffffffffffffffffffffffffffffffffffff16815260200190815260200160002060006101000a81548160ff0219169083151502179055505050565b600073ffffffffffffffffffffffffffffffffffffffff168373ffffffffffffffffffffffffffffffffffffffff161415612f1c576040517f08c379a00000000000000000000000000000000000000000000000000000000081526004018080602001828103825260258152602001806134da6025913960400191505060405180910390fd5b600073ffffffffffffffffffffffffffffffffffffffff168273ffffffffffffffffffffffffffffffffffffffff161415612fa2576040517f08c379a00000000000000000000000000000000000000000000000000000000081526004018080602001828103825260238152602001806132176023913960400191505060405180910390fd5b61300d816040518060600160405280602681526020016132ed602691396000808773ffffffffffffffffffffffffffffffffffffffff1673ffffffffffffffffffffffffffffffffffffffff1681526020019081526020016000205461295f9092919063ffffffff16565b6000808573ffffffffffffffffffffffffffffffffffffffff1673ffffffffffffffffffffffffffffffffffffffff168152602001908152602001600020819055506130a0816000808573ffffffffffffffffffffffffffffffffffffffff1673ffffffffffffffffffffffffffffffffffffffff1681526020019081526020016000205461179990919063ffffffff16565b6000808473ffffffffffffffffffffffffffffffffffffffff1673ffffffffffffffffffffffffffffffffffffffff168152602001908152602001600020819055508173ffffffffffffffffffffffffffffffffffffffff168373ffffffffffffffffffffffffffffffffffffffff167fddf252ad1be2c89b69c2b068fc378daa952ba7f163c4a11628f55a4df523b3ef836040518082815260200191505060405180910390a3505050565b6131568282611821565b6131ab576040517f08c379a00000000000000000000000000000000000000000000000000000000081526004018080602001828103825260218152602001806133966021913960400191505060405180910390fd5b60008260000160008373ffffffffffffffffffffffffffffffffffffffff1673ffffffffffffffffffffffffffffffffffffffff16815260200190815260200160002060006101000a81548160ff0219169083151502179055505050565b600080825114905091905056fe45524332303a207472616e7366657220746f20746865207a65726f2061646472657373416d6f756e74206f662074686520686f6c642063616e27742062652067726561746572207468616e207468652062616c616e6365206f6620746865206f726967696e45524332303a206275726e20616d6f756e7420657863656564732062616c616e636545524332303a20617070726f766520746f20746865207a65726f20616464726573734120686f6c642063616e206f6e6c7920626520657865637574656420696e20737461747573204f72646572656445524332303a207472616e7366657220616d6f756e7420657863656564732062616c616e63654120686f6c642063616e206f6e6c792062652072656c656173656420696e20737461747573204f72646572656450617965652061646472657373206d757374206e6f74206265207a65726f20616464726573734d696e746572526f6c653a2063616c6c657220646f6573206e6f74206861766520746865204d696e74657220726f6c65526f6c65733a206163636f756e7420646f6573206e6f74206861766520726f6c655468652076616c75652073686f756c6420626520657175616c206f72206c657373207468616e207468652068656c6420616d6f756e7445524332303a207472616e7366657220616d6f756e74206578636565647320616c6c6f77616e6365526f6c65733a206163636f756e7420697320746865207a65726f206164647265737357686974656c69737441646d696e526f6c653a2063616c6c657220646f6573206e6f742068617665207468652057686974656c69737441646d696e20726f6c6545524332303a206275726e2066726f6d20746865207a65726f206164647265737341206e6f74206578706972656420686f6c642063616e206f6e6c792062652072656c656173656420627920746865206e6f74617279206f722074686520706179656545524332303a207472616e736665722066726f6d20746865207a65726f206164647265737345524332303a20617070726f76652066726f6d20746865207a65726f206164647265737354686520686f6c642063616e206f6e6c7920626520657865637574656420627920746865206e6f746172794e6f746172792061646472657373206d757374206e6f74206265207a65726f206164647265737345524332303a2064656372656173656420616c6c6f77616e63652062656c6f77207a65726fa265627a7a72315820c7a47a7ba96e726b0bc5d0b51c6f865b86f900274c80ab3e5d4740304a9ebf3264736f6c634300050c0032526f6c65733a206163636f756e7420697320746865207a65726f2061646472657373",
  "source": "pragma solidity ^0.5.0;\n\nimport \"@openzeppelin/contracts/access/roles/MinterRole.sol\";\nimport \"@openzeppelin/contracts/access/roles/WhitelistedRole.sol\";\nimport \"@openzeppelin/contracts/token/ERC20/ERC20.sol\";\nimport \"./IHoldable.sol\";\nimport \"../libraries/StringUtil.sol\";\n\ncontract EmoneyToken is ERC20, IHoldable, MinterRole, WhitelistedRole{\n    \n    using StringUtil for string;\n    \n    struct Hold {\n        address issuer;\n        address origin;\n        address target;\n        address notary;\n        uint256 expiration;\n        uint256 value;\n        HoldStatusCode status;\n    }\n    \n    mapping(bytes32 => Hold) internal holds;\n    mapping(address => uint256) internal heldBalance;\n    uint256 internal _totalHeldBalance;\n    \n    function mint(address account, uint256 amount) public onlyMinter returns (bool) {\n        require(super.isWhitelisted(account), \"Account isn't whitelisted\");\n        super._mint(account, amount);\n        return true;\n    }\n    \n    function burn(address account, uint256 amount) public onlyMinter returns (bool) {\n        super._burn(account, amount);\n        return true;\n    }\n    \n    function hold(\n        string memory operationId,\n        address from,\n        address to,\n        address notary,\n        uint256 value,\n        uint256 timeToExpiration\n    ) public returns (bool)\n    {\n        _checkHold(to);\n\n        return _hold(\n            operationId,\n            msg.sender,\n            from,\n            to,\n            notary,\n            value,\n            _computeExpiration(timeToExpiration)\n        );\n    }\n    \n    function releaseHold(string memory operationId) public returns (bool) {\n        Hold storage releasableHold = holds[operationId.toHash()];\n\n        return _releaseHold(releasableHold, operationId);\n    }\n    \n    function executeHold(string memory operationId, uint256 value) public returns (bool) {\n        return _executeHold(\n            operationId,\n            value\n        );\n    }\n    \n    /// @notice Retrieve the erc20.balanceOf(account) - heldBalance(account)\n    function balanceOf(address account) public view returns (uint256) {\n        return super.balanceOf(account).sub(heldBalance[account]);\n    }\n    \n    function transfer(address _to, uint256 _value) public returns (bool) {\n        require(balanceOf(msg.sender) >= _value, \"Not enough available balance\");\n        return super.transfer(_to, _value);\n    }\n    \n    function transferFrom(address _from, address _to, uint256 _value) public returns (bool) {\n        require(balanceOf(_from) >= _value, \"Not enough available balance\");\n        return super.transferFrom(_from, _to, _value);\n    }\n    \n    function balanceOnHold(address account) public view returns (uint256) {\n        return heldBalance[account];\n    }\n\n    function netBalanceOf(address account) public view returns (uint256) {\n        return super.balanceOf(account);\n    }\n\n    function totalSupplyOnHold() public view returns (uint256) {\n        return _totalHeldBalance;\n    }\n    \n    function _hold(\n        string memory operationId,\n        address issuer,\n        address from,\n        address to,\n        address notary,\n        uint256 value,\n        uint256 expiration\n    ) internal returns (bool)\n    {\n        Hold storage newHold = holds[operationId.toHash()];\n\n        require(!operationId.isEmpty(), \"Operation ID must not be empty\");\n        require(value > 0, \"Value must be greater than zero\");\n        require(newHold.value == 0, \"This operationId already exists\");\n        require(notary != address(0), \"Notary address must not be zero address\");\n        require(value <= balanceOf(from), \"Amount of the hold can't be greater than the balance of the origin\");\n\n        newHold.issuer = issuer;\n        newHold.origin = from;\n        newHold.target = to;\n        newHold.notary = notary;\n        newHold.value = value;\n        newHold.status = HoldStatusCode.Ordered;\n        newHold.expiration = expiration;\n\n        heldBalance[from] = heldBalance[from].add(value);\n        _totalHeldBalance = _totalHeldBalance.add(value);\n\n        emit HoldCreated(\n            issuer,\n            operationId,\n            from,\n            to,\n            notary,\n            value,\n            expiration\n        );\n\n        return true;\n    }\n    \n    function _releaseHold(Hold storage releasableHold, string memory operationId) internal returns (bool) {\n        require(\n            releasableHold.status == HoldStatusCode.Ordered,\n            \"A hold can only be released in status Ordered\"\n        );\n        require(\n            (msg.sender == releasableHold.notary) ||\n            (msg.sender == releasableHold.target),\n            \"A not expired hold can only be released by the notary or the payee\"\n        );\n\n        if (releasableHold.notary == msg.sender) {\n            releasableHold.status = HoldStatusCode.ReleasedByNotary;\n        } else {\n            releasableHold.status = HoldStatusCode.ReleasedByPayee;\n        }\n\n        heldBalance[releasableHold.origin] = heldBalance[releasableHold.origin].sub(releasableHold.value);\n        _totalHeldBalance = _totalHeldBalance.sub(releasableHold.value);\n\n        emit HoldReleased(releasableHold.issuer, operationId, releasableHold.status);\n\n        return true;\n    }\n    \n    function _executeHold(\n        string memory operationId,\n        uint256 value\n    ) internal returns (bool)\n    {\n        Hold storage executableHold = holds[operationId.toHash()];\n\n        require(\n            executableHold.status == HoldStatusCode.Ordered,\n            \"A hold can only be executed in status Ordered\"\n        );\n        require(value > 0, \"Value must be greater than zero\");\n        require(executableHold.notary == msg.sender, \"The hold can only be executed by the notary\");\n        require(value <= executableHold.value, \"The value should be equal or less than the held amount\");\n\n        heldBalance[executableHold.origin] = heldBalance[executableHold.origin].sub(executableHold.value);\n        _totalHeldBalance = _totalHeldBalance.sub(executableHold.value);\n        super._burn(executableHold.origin, executableHold.value);\n        executableHold.status=HoldStatusCode.Executed;\n\n        return true;\n    }\n    \n    function _computeExpiration(uint256 _timeToExpiration) internal view returns (uint256) {\n        uint256 expiration = 0;\n\n        if (_timeToExpiration != 0) {\n            /* solium-disable-next-line security/no-block-members */\n            expiration = now.add(_timeToExpiration);\n        }\n\n        return expiration;\n    }\n    \n    function _checkHold(address to) private pure {\n        require(to != address(0), \"Payee address must not be zero address\");\n    }\n    \n}",
  "sourcePath": "/home/adrianpareja/CrossBoarderPayment/contracts/eMoneyToken/EmoneyToken.sol",
  "compiler": {
    "name": "solc",
    "version": "0.5.12+commit.7709ece9.Emscripten.clang"
  },
  "schemaVersion": "3.0.19",
  "updatedAt": "2020-02-01T04:28:56.465Z",
  "networkType": "ethereum",
  "devdoc": {
    "methods": {
      "allowance(address,address)": {
        "details": "See {IERC20-allowance}."
      },
      "approve(address,uint256)": {
        "details": "See {IERC20-approve}.     * Requirements:     * - `spender` cannot be the zero address."
      },
      "decreaseAllowance(address,uint256)": {
        "details": "Atomically decreases the allowance granted to `spender` by the caller.     * This is an alternative to {approve} that can be used as a mitigation for problems described in {IERC20-approve}.     * Emits an {Approval} event indicating the updated allowance.     * Requirements:     * - `spender` cannot be the zero address. - `spender` must have allowance for the caller of at least `subtractedValue`."
      },
      "increaseAllowance(address,uint256)": {
        "details": "Atomically increases the allowance granted to `spender` by the caller.     * This is an alternative to {approve} that can be used as a mitigation for problems described in {IERC20-approve}.     * Emits an {Approval} event indicating the updated allowance.     * Requirements:     * - `spender` cannot be the zero address."
      },
      "totalSupply()": {
        "details": "See {IERC20-totalSupply}."
      }
    }
  },
  "userdoc": {
    "methods": {
      "balanceOf(address)": {
        "notice": "Retrieve the erc20.balanceOf(account) - heldBalance(account)"
      }
    }
  }
}